:100000000C9482020C94AA020C94AA020C9408107C
:100010000C9408100C9408100C94AA020C94D7119C
:100020000C94AA020C94AA020C94AA020C94AA02A0
:100030000C94AA020C94AA020C94AA020C94AA0290
:100040000C94AC020C94AA020C9494120C946E12B0
:100050000C94AA020C94AA020C94AA020C94AA0270
:100060000C948C0C0C94AA027003E70358047604D9
:100070007F05490669088D08E60BE90BEC0BEF0BD1
:10008000F20BF50BF80BFB0BFE0B010C040C971697
:100090009916B616BD16E416EF161A172317496EF1
:1000A0006974205450353130302E2E2E2E2E0025DE
:1000B0002D3136530041534344204E414E4F20567C
:1000C000322E302E3000252D31365300204368610A
:1000D000723A2000693A200026435325643D3726B2
:1000E000435625643D25642E25303264264643253B
:1000F000643D256400253034646D2563202020256F
:100100003034646D4168002D4641554C54204348BD
:10011000472054494D45002564252D313553002D88
:100120004641554C54204849474820544D500025DD
:1001300064252D313553002D4641554C54204C4FEC
:1001400057206D4168002564252D313553002D461B
:1001500041554C542048494748204F484D0025649C
:10016000252D313553002D46494E4953484544000D
:100170002564252D39532025642E25303264560000
:10018000253032643A253032643A253032642025F5
:100190003034646D4168002D4443002564252D34BE
:1001A0005325642E25303264412025642E253032BB
:1001B00064560026435325643D3426544925643D46
:1001C000256426435425643D256426435625643D15
:1001D00025642E25303264002000252D3131532531
:1001E000642E2530326456002D5245535400256448
:1001F000252D3753253032643A253032643A253084
:1002000032640026435325643D33264D4F25643D1B
:10021000256426435625643D25642E25303264002E
:100220004D494C4C494F484D5300252D31305325F5
:100230003034646D2563002D524553495354414E6B
:100240004345002564252D3135530026435325644D
:100250003D31002000252D31315325642E253032CB
:100260006456002D5343414E20424152434F444572
:10027000002564252D3135530026435325643D3038
:1002800000494E534552542042415400252D3131EE
:100290005325642E2530326456002D424154544576
:1002A000525920434845434B002564252D31355391
:1002B000002641543D256400005EBCE2613FDD83C1
:1002C000C29C7E20A3FD1F41009D23BE46DB65F836
:1002D0008C11AF32CA57E974554B4E4F574E0049F7
:1002E0004E534552545F444154415F535543434537
:1002F000535346554C5F00424152434F44455F4380
:100300004F4E54494E55455F0052455345540045A4
:1003100052524F525F53455249414C5F4F555450D2
:100320005554004552524F525F484153485F494E21
:10033000505554004552524F525F4441544142413E
:1003400053455F484153485F494E5055540045520C
:10035000524F525F4E4F5F424152434F44455F49B7
:100360004E505554004552524F525F4E4F5F4241DE
:1003700052434F44455F4442004552524F525F4DF5
:10038000495353494E475F44415441004552524FEF
:10039000525F44415441424153450054494D454FF9
:1003A000555400434F4E4E454354494F4E5F4552BE
:1003B000524F52005355434345535346554C000248
:1003C00000000000240027002A00000000080002AE
:1003D000010000030407000000000000000000000E
:1003E000000023002600290000000000250028004E
:1003F0002B000404040404040404020202020202A6
:1004000003030303030301020408102040800102D8
:100410000408102001020408102026435325643DDF
:100420003526544925643D256426495425643D25D7
:100430006426495625643D25642E253032642643C2
:100440005425643D256426435625643D25642E25A8
:1004500030326426485425643D2564264D41256488
:100460003D256426444125643D25642E25303264B3
:10047000264D4F25643D25640026435325643D25C4
:100480006426544925643D256426495425643D2548
:100490006426495625643D25642E25303264264362
:1004A0005425643D256426435625643D25642E2548
:1004B00030326426485425643D2564002D5243485B
:1004C0004720002D43485247200025642E25303216
:1004D000645620202530326425632025642E253083
:1004E000326456002564252D3753253032643A2571
:1004F0003032643A253032640026494425640000D5
:10050000AF21932111241FBECFEFD8E0DEBFCDBFB6
:1005100026E0AAEDB1E001C01D92AE37B207E1F7C7
:1005200011E0A0E0B1E0E6E2F6E502C005900D9230
:10053000AA3DB107D9F712E0C1E8D2E004C0219783
:10054000FE010E94D627C038D107C9F70E94981A29
:100550000C94062B0C9400001F920F920FB60F9272
:1005600011242F933F938F939F93AF93BF938091C9
:10057000DC029091DD02A091DE02B091DF023091A9
:10058000E40123E0230F2D3720F40196A11DB11DB6
:1005900005C026E8230F0296A11DB11D2093E4019A
:1005A0008093DC029093DD02A093DE02B093DF0221
:1005B0008091E0029091E102A091E202B091E30209
:1005C0000196A11DB11D8093E0029093E102A093DA
:1005D000E202B093E302BF91AF919F918F913F915F
:1005E0002F910F900FBE0F901F9018952F923F9252
:1005F0004F925F926F927F928F929F92AF92BF9233
:10060000CF92DF92EF92FF920F931F93CF93DF93DE
:10061000CDB7DEB76A970FB6F894DEBF0FBECDBF79
:1006200010922A0469ED71E084ED94E00E94FF2AA3
:1006300060E084E00E94AB13E4EDF4E00190002060
:10064000E9F72091C9041F922F9321EB32E03F93E9
:100650002F93CF0101979F938F930E94862337EDAD
:10066000232E33E0332E41E3442E44E0542E29E67A
:1006700034E03A8B298B8FE291E09E8B8D8BAFE932
:10068000B4E0B88BAF87E3EAF4E0FE87ED8727EAB2
:1006900034E03C872B8785EC94E09C8B8B8BA6E227
:1006A000B4E0BA87A9870F900F900F900F900F902A
:1006B0000F903A8229823C822B8266246394712CAB
:1006C0001A8E198EAB81BC81EC918E2F90E0883010
:1006D000910508F034C6FC01EC5CFF4F0C94D62762
:1006E000198DC2010E94E2146B017C016093DF034B
:1006F0007093E0038093E1039093E2038091BB0445
:1007000018133CC08AE992E09F938F937F926F9277
:1007100089EA92E09F938F93EFE6F4E0FF93EF93E3
:100720000E94862320E030E048EC52E4C701B60185
:100730000E94A8260E94CF28CB0164E670E00E94A8
:10074000A0279F938F93C701B6010E94CF287F9364
:100750006F9381E892E09F938F938CE892E09F9350
:100760008F938FE794E09F938F930E9486230E943C
:1007700018160FB6F894DEBF0FBECDBFE4EDF4E05F
:1007800001900020E9F72A8D2F93398D3F9389E757
:1007900092E09F938F933197FF93EF930E9486236C
:1007A0000F900F900F900F900F900F9020E030E07F
:1007B00040EC5FE36091DF037091E0038091E1031F
:1007C0009091E2030E94052987FDB9C5B5C5198D31
:1007D000C2010E94E2146B017C016093DF037093FD
:1007E000E0038093E1039093E2038091BB0418132C
:1007F0003CC083E692E09F938F937F926F9281E754
:1008000092E09F938F938FE694E09F938F930E9443
:10081000862320E030E048EC52E4C701B6010E9494
:10082000A8260E94CF28CB0164E670E00E94A02792
:100830009F938F93C701B6010E94CF287F936F9338
:1008400083E592E09F938F9385E592E09F938F934A
:10085000EFE7F4E0FF93EF930E9486230E941816BF
:100860000FB6F894DEBF0FBECDBFEB81FC81E3571E
:10087000FD4F8081882319F0812F0E947216E4EDCC
:10088000F4E001900020E9F79A8D9F93A98DAF9332
:100890008BE492E09F938F933197FF93EF930E94A5
:1008A00086230F900F900F900F900F900F9047C5D9
:1008B000198D812F0E945B19898D0E943419823015
:1008C00039F487E0E985FA858083898D0E943C169A
:1008D000AB85BC858C91883039F489E0E985FA854F
:1008E0008083812F0E943C1661E010C4F98DFD8346
:1008F000AB81BC8114968C91883008F0EDC01092C9
:10090000DF031092E0031092E1031092E2031092D1
:10091000E3031092E4031092E5031092E603C20190
:100920000E94E2146093DF037093E0038093E1037D
:100930009093E20361E0E989FA8980810E948B1536
:10094000C2010E94E2146093E3037093E403809376
:10095000E5039093E60360E0A989BA898C910E942F
:100960008B158090E3039090E403A090E503B09092
:10097000E603A50194016091DF037091E00380918B
:10098000E1039091E2030E94F0276B017C01ED8965
:10099000FE892081318142815381C501B4010E94C9
:1009A0005D289B01AC01C701B6010E945D2820E0D3
:1009B00030E04AE754E40E94A82620E030E0A90194
:1009C0000E94F1270E94CF288B01693E734014F0EA
:1009D00007EE13E08091BB042D8128132AC087E322
:1009E00092E09F938F937F926F9283E492E09F9324
:1009F0008F938FE694E09F938F930E9486231F929C
:100A000084EF8F931F930F9380E292E09F938F93D5
:100A10008AE292E09F938F93EFE7F4E0FF93EF93E6
:100A20000E9486230E9418160FB6F894DEBF0FBEF0
:100A3000CDBF8090DF039090E003A090E103B090E1
:100A4000E203E4EDF4E001900020E9F7DF01A55DA9
:100A5000B4407D0120E030E048EC52E4C501B4012F
:100A60000E94A8260E94CF28CB0164E670E00E9475
:100A7000A0279F938F93C501B4010E94CF287F9335
:100A80006F93BA8DBF93E98DEF931F930F93BF932D
:100A9000EF93BF93EF9383E092E09F938F93C7010F
:100AA0008C529B4F9F938F930E948623AB81BC8176
:100AB00014968C9114978F5F14968C93E981FA8128
:100AC00067A970AD600F711F70AF67AB0FB6F89478
:100AD000DEBF0FBECDBF33C4A981BA81D7968D9139
:100AE0009C91D89797FD079623E0959587952A9531
:100AF000E1F7E981FA8190AF87AB8D811EC4B98C93
:100B00008B2D0E945B19C2010E94E2146B017C01D3
:100B10006093DF037093E0038093E1039093E2031B
:100B20008091BB04B8124BC0AF85B8898C911F92DD
:100B30008F93ED85FE8580811F928F93AB85BC8559
:100B40008C911F928F9388EE91E09F938F937F9269
:100B50006F928EEE91E09F938F93EFE6F4E0FF9318
:100B6000EF930E94862320E030E048EC52E4C70176
:100B7000B6010E94A8260E94CF28CB0164E670E04F
:100B80000E94A0279F938F93C701B6010E94CF2890
:100B90007F936F9388ED91E09F938F938AED91E01F
:100BA0009F938F938FE794E09F938F930E94862368
:100BB0000E9418160FB6F894DEBF0FBECDBFC090CE
:100BC000DF03D090E003E090E103F090E203AD8515
:100BD000BE85AC90E4EDF4E001900020E9F78F01D0
:100BE000055D144020E030E048EC52E4C701B60156
:100BF0000E94A8260E94CF28CB0164E670E00E94E4
:100C0000A0279F938F93C701B6010E94CF287F939F
:100C10006F93BA8DBF93E98DEF93AB89BC898C91AB
:100C20001F928F93BA8DBF93EF93EF85F889208140
:100C3000FCE3AF9EC0011124820F911DAB85BC85E2
:100C40006C9140E15EE0649F9001659F300D11243E
:100C5000820F931F9F938F93BA8DBF93E98DEF936C
:100C6000BF93EF9383EB91E09F938F930C521B4FB5
:100C70001F930F930E9486230FB6F894DEBF0FBE1A
:100C8000CDBFAD85BE858C91813009F058C38B2DC9
:100C900054C3198D812F0E945B19898D0E943419CC
:100CA000823039F487E0E985FA858083898D0E9456
:100CB0003C161092DF031092E0031092E1031092B1
:100CC000E2031092E3031092E4031092E503109202
:100CD000E6031092E7031092E8031092E9031092E2
:100CE000EA03C2010E94E2146093DF037093E00301
:100CF0008093E1039093E20323E333E343E350E47F
:100D00000E94052987FD65C18091FD03811161C1A4
:100D100061E0A989BA898C910E948B15C2010E9459
:100D2000E2146093DF037093E0038093E1039093F8
:100D3000E203C10186599F4F0E94E2149B01AC015E
:100D40006093E3037093E4038093E5039093E603D9
:100D50006091DF037091E0038091E1039091E203E1
:100D60000E94F027ED89FE892081318142815381E3
:100D70000E945D286093E7037093E8038093E90382
:100D80009093EA03F10187A190A5A1A5B2A5892BB3
:100D90008A2B8B2B39F488EE93E09093FC0380939D
:100DA000FB030DC00E940013D10197962D913C9139
:100DB0009897621B730B7093FC036093FB03609125
:100DC000FB037091FC03072E000C880B990B0E940B
:100DD00049262091E7033091E8034091E9035091BF
:100DE000EA030E94A82620E030E041E655E40E9494
:100DF0005D289B01AC01F101648975898689978919
:100E00000E94F127D10154966D937D938D939C930D
:100E100057970E940013F10167A370A781A792A7BB
:100E20008091BB04181385C0AF85B889BC91B88F79
:100E3000ED85FE85F081FF8BAB85BC850C91D101E2
:100E400054968D919D910D90BC91A02D8D839E8384
:100E5000AF83B887C090E703D090E803E090E90340
:100E6000F090EA038090DF039090E003A090E1030C
:100E7000B090E20320E030E048EC52E4C501B40158
:100E80000E94A8260E94CF28CB0164E670E00E9451
:100E9000A0279F938F93C501B4010E94CF287F9311
:100EA0006F9320E030E048EC52E4C701B6010E94A5
:100EB000A8260E94CF28CB0164E670E00E94A027FC
:100EC0009F938F93C701B6010E94CF287F936F93A2
:100ED00087E991E09F938F937F926F928BE991E0E6
:100EE0009F938F93EFE6F4E0FF93EF930E948623A6
:100EF0006D817E818F8198850E94CF287F936F932B
:100F00001F92388D3F931F928F898F931F920F935B
:100F100080E891E09F938F93AFE7B4E0BF93AF93E6
:100F20000E9486230E9418160FB6F894DEBF0FBEEB
:100F3000CDBFF101FF96C080D180E280F380A9810E
:100F4000BA81D8968C91D8978F93D7968C918F939E
:100F5000EB81FC81E950FF4F80818F93F1018789FC
:100F60008F9386898F9385898F9384898F938091BE
:100F7000EA038F938091E9038F938091E8038F9325
:100F80008091E7038F938091E2038F938091E10337
:100F90008F938091E0038F938091DF038F93AB89D0
:100FA000BC89AC90EB81FC81ED50FF4F0081EF8557
:100FB000F8892081AD85BE854C91EB85FC856081EB
:100FC000812F0E94D2190FB6F894DEBF0FBECDBF9D
:100FD000A0C081E08093FD0360E0A989BA898C916B
:100FE0000E948B15F101FF96C080D180E280F380D2
:100FF000E981FA8180AD8F9387A98F93EB81FC8182
:10100000E950FF4F80818F93D10157968C9157976C
:101010008F9356968C9156978F9355968C915597A2
:101020008F9354968C918F938091EA038F93809144
:10103000E9038F938091E8038F938091E7038F9367
:101040008091E2038F938091E1038F938091E0037D
:101050008F938091DF038F93EB89FC89A080EB81D4
:10106000FC81ED50FF4F0081AF85B8892C91ED8553
:10107000FE854081AB85BC856C91812F0E94D21981
:101080000FB6F894DEBF0FBECDBFEB81FC81EF56EB
:10109000FD4F8081882321F0812F0E94721639C074
:1010A000E4EDF4E001900020E9F72A8D2F93398DCB
:1010B0003F9389EF94E09F938F933197FF93EF9342
:1010C0000E9486230F900F900F900F900F900F901B
:1010D00020C0198D812F0E945B19898D0E943419BF
:1010E000823039F487E0A985BA858C93898D0E9476
:1010F0003C16EB85FC858081883039F489E0A98530
:10110000BA858C93812F0E943C1660E0812F0E944B
:101110007B1781E080932A0412C1198DC2010E94BD
:10112000E2146B017C016093DF037093E003809312
:10113000E1039093E2038091BB041813A6C0F10170
:1011400084889588A688B788A981BA81D7960C919A
:10115000D797D896BC91BD83E985FA858081853083
:1011600009F452C0A0F4882339F1833009F070C02B
:101170008EE491E09F938F937F926F928EE591E042
:101180009F938F938FE694E09F938F935AC08730FD
:1011900009F449C0893009F05BC0A7E0B1E0BF9312
:1011A000AF937F926F9227E131E03F932F93AFE6A9
:1011B000B4E0BF93AF9345C020E030E048EC52E488
:1011C000C701B6010E94A8260E94CF28CB0164E681
:1011D00070E00E94A0279F938F93C701B6010E94E1
:1011E000CF287F936F9326E631E03F932F937F9232
:1011F0006F9280E791E09F938F93AFE6B4E0BF9347
:10120000AF930E9486231FC027E331E03F932F93C3
:101210007F926F92A6E4B1E0BF93AF932FE634E0E4
:101220003F932F930EC0EFE1F1E0FF93EF937F9296
:101230006F928FE291E09F938F93EFE6F4E0FF933C
:10124000EF930E9486230FB6F894DEBF0FBECDBF8A
:10125000C501B4010E94CF287F936F931F9284EF42
:101260008F933D813F930F9385EF90E09F938F93F2
:10127000EFE7F4E0FF93EF930E9486230E94181695
:101280000FB6F894DEBF0FBECDBF8090DF03909005
:10129000E003A090E103B090E203E4EDF4E00190FC
:1012A0000020E9F7DF01A55DB4407D01E985FA85FD
:1012B00080811F928F93FA8DFF93298D2F9320E0C9
:1012C00030E048EC52E4C501B4010E94A8260E9417
:1012D000CF28CB0164E670E00E94A0279F938F93F4
:1012E000C501B4010E94CF287F936F933A8D3F933D
:1012F000898D8F933F938F93A8EDB0E0BF93AF9309
:10130000C7018C529B4F9F938F930E9486230FB6E9
:10131000F894DEBF0FBECDBF20E030E040EC5FE3CD
:101320006091DF037091E0038091E1039091E2030B
:101330000E94422687FF03C0812F0E947216898D6A
:101340009A8D01969A8F898F9FEF691A790AAB81DE
:10135000BC811196BC83AB83E981FA813296FA8312
:10136000E983F4E04F0E511C24E0220E311C8989E0
:101370009A8901969A8B898BAD89BE891496BE8B0A
:10138000AD8BEF85F8893196F88BEF872D853E85FB
:101390002F5F3F4F3E872D878B859C8501969C87CD
:1013A0008B87AB89BC891196BC8BAB8BE985FA85A1
:1013B0003196FA87E987298D3A8D2430310509F075
:1013C00081C960912A0480916D046A960FB6F894E1
:1013D000DEBF0FBECDBFDF91CF911F910F91FF9068
:1013E000EF90DF90CF90BF90AF909F908F907F90C5
:1013F0006F905F904F903F902F900C9445110F93FA
:101400001F93CF93DF938C01C0E0D0E0F801EC0F85
:10141000FD1F6491662341F088EF92E00E94680FFF
:10142000892B11F02196F2CFCE01DF91CF911F9140
:101430000F910895CF93DF930E94FF09EC0167EDB0
:1014400071E088EF92E00E9459128C0F9D1FDF918E
:10145000CF9108958F929F92AF92BF920F931F9357
:10146000CF93DF93CDB7DEB7A1970FB6F894DEBF69
:101470000FBECDBF19A2423008F44AE08E010F5DC5
:101480001F4F842E912CA12CB12CA50194010E94F8
:10149000B427E62FB901CA0101501109EA3014F44A
:1014A000E05D01C0E95CD801EC93232B242B252BB4
:1014B00061F7B80188EF92E00E945912A1960FB629
:1014C000F894DEBF0FBECDBFDF91CF911F910F917A
:1014D000BF90AF909F908F90089585ED8093BC0052
:1014E0008091BC0084FDFCCF10925302089540917E
:1014F000B902262F30E0240F311D21323105DCF4F2
:10150000209153022430C9F4FC0180E090E086175A
:1015100058F43091B9022191DC01A756BD4FA30FB9
:10152000B11D2C930196F3CF8091B902680F60939F
:10153000B90280E0089581E0089582E00895089559
:101540000895E0914B0280914A02E81730F4F0E0F0
:10155000E758FD4F808190E008958FEF9FEF089549
:1015600090914B0280914A02981750F4E92FF0E0D5
:10157000E758FD4F208130E09F5F90934B0202C0FF
:101580002FEF3FEFC901089580914A0290E020912A
:101590004B02821B91090895CF92DF92EF92FF9246
:1015A0000F931F93CF93DF937C01CB018A0120918E
:1015B0004902222389F0EB016B01C40ED51ECC1524
:1015C000DD0569F06991D701ED91FC910190F08101
:1015D000E02DC7010995F3CF642F0E94770AC80157
:1015E000DF91CF911F910F91FF90EF90DF90CF90FF
:1015F0000895CF93DF931F92CDB7DEB76983209113
:1016000049022223D1F020914C02203240F021E007
:1016100030E0FC013383228380E090E015C08091AC
:101620004D02E82FF0E0E75DFD4F998190838F5FD9
:1016300080934D0280934C0205C061E0CE0101967B
:101640000E94770A81E090E00F90DF91CF9108959A
:1016500020912702309128022817390771F49091C0
:10166000260280912502981741F0E0912602F0E0D1
:10167000EB51FE4F808190E008958FEF9FEF08952A
:101680001F93CF93DF93DC015C968D919C915D97C6
:10169000009739F421E030E013963C932E93129793
:1016A0003BC05196ED91FC91529750962C915097DA
:1016B000322F30951FB75E964C915E97742F7270E3
:1016C00041FD6095F8944081772311F0422B01C0D1
:1016D00043234083EC012197F1F748E0508160FFFC
:1016E00002C0522B01C053235083EC012197F1F724
:1016F0006695415099F78081772319F08323808381
:1017000002C0282B20831FBF5C968D919C915D9712
:101710000197F1F781E090E0DF91CF911F9108955B
:1017200020912702309128022817390771F48091FF
:1017300025022091260290E0805C9F4F821B910938
:1017400060E470E00E94A027089580E090E0089592
:10175000CF92DF92EF92FF92CF93DF936C01990FBC
:10176000EE08FF08F7FE13C06DE288EF92E00E94DA
:10177000680FEC0166277727CB016C197D098E096C
:101780009F094AE00E942A0AC80FD91F06C04AE0F2
:10179000C701B6010E942A0AEC0167ED71E088EFEB
:1017A00092E00E9459128C0F9D1FDF91CF91FF9004
:1017B000EF90DF90CF900895CF93DF938B3091051A
:1017C00030F5FC01E45CFF4F0C94D62784EB93E0EA
:1017D00042C083EA93E03FC08BE993E03CC08CE8D1
:1017E00093E039C089E793E036C085E693E033C0E3
:1017F0008EE493E030C084E393E02DC083E293E075
:101800002AC08FE093E027C089E093E024C0EC0178
:10181000C456D109C436D10540F4FE01EC59F94F44
:1018200081E0808387EF92E00DC0EC01C85CD109B4
:10183000C436D10570F4FE01E859F94F81E0808388
:101840008FED92E00E94FF09CE01DF91CF910C94C1
:10185000A80B88ED92E0DF91CF910C941A0A0F93B8
:101860001F930E9400136093B3037093B40380939B
:10187000B5039093B6038BEA93E00E94B00E97FFF6
:101880001FC00E9400130091B3031091B403209174
:10189000B5033091B603DC01CB01801B910BA20B89
:1018A000B30B0091AF031091B0032091B1033091BD
:1018B000B20380179107A207B307E8F28FEF9FEFFB
:1018C0001F910F910895CF93DF93EC011982188235
:1018D0001B821A821D821C8260E070E00E94B0119F
:1018E0002881398181110FC02115310519F0C901F5
:1018F0000E94A229198218821D821C821B821A82D0
:10190000DF91CF9108951D821C8269ED71E0C901BC
:10191000DF91CF910C94FF2A1F920F920FB60F9276
:1019200011242F933F934F935F936F937F938F93E4
:101930009F93AF93BF93EF93FF938091B900887FFC
:10194000803609F49CC068F5883209F45BC090F4D5
:10195000803109F454C038F4882309F4F6C0883083
:1019600009F44DC0F6C0883109F44CC0803209F446
:101970005DC0EFC0803409F468C048F4803309F4D6
:1019800055C0883309F0E5C080935202D8C0803535
:1019900009F44FC0883509F45DC0883409F0D9C016
:1019A000D6C0883909F4C7C0A8F4883709F467C0DD
:1019B00038F4883609F463C0803709F460C0C9C0C0
:1019C000883809F4B8C0803909F45FC0803809F05C
:1019D000C0C05BC0803B09F486C038F4803A09F48B
:1019E00066C0883A09F47FC0B4C0803C09F4A7C03F
:1019F000883C09F4A4C0883B09F48AC0AAC080913D
:101A0000780210C09091770280917602981770F555
:101A1000E091770281E08E0F80937702F0E0EA5A3E
:101A2000FD4F80818093BB0085EC86C0809352027D
:101A30008EC0E091770281E08E0F809377028091D3
:101A4000BB00F0E0EA5AFD4F8083909177028091CD
:101A500076026EC0E091770281E08E0F809377026C
:101A60008091BB00F0E0EA5AFD4F808380915502DF
:101A700081116DC081E08093540284EA61C083E0EB
:101A8000809353021092DB02CFCF8091DB02803231
:101A900008F051C0E091DB0281E08E0F8093DB0201
:101AA0008091BB00F0E0E554FD4F8083BDCF85EC15
:101AB0008093BC00109253028091DB02803230F49C
:101AC000E091DB02F0E0E554FD4F10826091DB0213
:101AD00070E0E0915002F09151028BEB92E0099599
:101AE0001092DB0236C084E0809353021092BA0257
:101AF0001092B902E0914E02F0914F020995809147
:101B0000B902811105C081E08093B9021092990257
:101B1000E091BA0281E08E0F8093BA02F0E0E756BE
:101B2000FD4F80818093BB009091BA028091B902F1
:101B3000981708F479CF85E88093BC000AC085EC3B
:101B40008093BC001092530204C0109252020E9473
:101B50006D0AFF91EF91BF91AF919F918F917F910E
:101B60006F915F914F913F912F910F900FBE0F900A
:101B70001F9018950895DC0180E0615098F02D9138
:101B8000982F9227E92FEF70F0E0E854FD4F249151
:101B900092959F70E92FF0E0E853FD4FE491822F7A
:101BA0008E27EBCF0895FC0190810180F281E02D1A
:101BB000F8948181892B81832281892F8095282324
:101BC0002283A7E0B0E01197F1F72181822381837E
:101BD000A3E2B0E01197F1F780817894EFECF0E0A8
:101BE0003197F1F7982381E009F480E00895FC0132
:101BF00090810180F281E02D892F809560FF12C0D5
:101C0000F8942281822382838181892B8183A3E2BC
:101C1000B0E01197F1F78281982B9283789487ED49
:101C200090E011C0F8942281822382838181892BE4
:101C30008183AFEFB0E01197F1F78281982B928307
:101C400078948FE090E00197F1F70895DF92EF929A
:101C5000FF920F931F93CF93DF93EC01D62EE42EC8
:101C600008E010E0FF24F39461E08D2D8F2109F44A
:101C700060E0CE010E94F70DFF0C01501109A1F7A1
:101C8000E11010C0F894E981FA81918188818095F2
:101C900089238183E981FA819281888180958923D2
:101CA00082837894DF91CF911F910F91FF90EF90F5
:101CB000DF900895EF92FF920F931F93CF93DF93DE
:101CC0008C017B0140E065E50E94260EE70188E07B
:101CD000E80EF11C699140E0C8010E94260ECE1565
:101CE000DF05C1F7DF91CF911F910F91FF90EF902A
:101CF0000895DC012C911196ED91FC911297F894C6
:101D00008181922F90958923818378948DE743E098
:101D100050E0815021F1DA011197F1F7308132233F
:101D2000C1F3F8948281892382838181822B81830C
:101D30007894ABE7B7E01197F1F7F8948181982395
:101D4000918383E191E00197F1F78081282381E07D
:101D500009F080E07894E3E6F6E03197F1F7089532
:101D6000209127023091280228173907B9F4909161
:101D7000260280912502981789F0E0912602F0E072
:101D8000EB51FE4F80812091260230E02F5F3F4FC4
:101D90002F7333272093260290E008958FEF9FEF53
:101DA00008950895CF92DF92EF92FF920F931F93C1
:101DB000CF93DF936C017A018B01C0E0D0E0CE15A8
:101DC000DF0581F0D8016D918D01D601ED91FC9177
:101DD0000190F081E02DC6010995892B11F0219623
:101DE000EECF7E01C701DF91CF911F910F91FF9040
:101DF000EF90DF90CF90089580E090E00895FC018F
:101E0000538D448D252F30E0842F90E0821B930B5F
:101E1000541710F0CF96089501970895FC01918D05
:101E2000828D981761F0828DDF01A80FB11D5D963C
:101E30008C91928D9F5F9F73928F90E008958FEFAA
:101E40009FEF0895FC01918D828D981731F0828D5E
:101E5000E80FF11D858D90E008958FEF9FEF0895B5
:101E6000FC01918D228D892F90E0805C9F4F821B19
:101E700091098F739927089588EF92E00E94300F9F
:101E800021E0892B09F420E0822F0895FC01848D44
:101E9000DF01A80FB11DA35ABF4F2C91848D90E094
:101EA00001968F739927848FA689B7892C93A0896F
:101EB000B1898C91837080648C93938D848D9813F9
:101EC00006C00288F389E02D80818F7D808308958C
:101ED000EF92FF920F931F93CF93DF93EC0181E07A
:101EE000888F9B8D8C8D981305C0E889F989808136
:101EF00085FD26C0F62E0B8D10E00F5F1F4F0F7370
:101F00001127E02E8C8DE8120CC00FB607FCFACF1B
:101F1000E889F989808185FFF5CFCE010E94460FBF
:101F2000F1CF8B8DFE01E80FF11DE35AFF4FF082D8
:101F30009FB7F8940B8FEA89FB89808180620AC081
:101F40009FB7F894EE89FF896083E889F9898081D9
:101F50008370806480839FBF81E090E0DF91CF91A8
:101F60001F910F91FF90EF900895CF93DF93EC01B5
:101F7000888D8823C9F0EA89FB89808185FD05C0A9
:101F8000A889B9898C9186FD0FC00FB607FCF5CFE3
:101F9000808185FFF2CFA889B9898C9185FFEDCF2B
:101FA000CE010E94460FE7CFDF91CF91089580E0E8
:101FB00090E0892B29F00E943C0F81110C940000C5
:101FC00008953FB7F8948091E0029091E102A091CA
:101FD000E202B091E30226B5A89B05C02F3F19F09D
:101FE0000196A11DB11D3FBFBA2FA92F982F882799
:101FF000820F911DA11DB11DBC01CD0142E0660FF4
:10200000771F881F991F4A95D1F708950E94F12ADA
:102010001F920F920FB60F9211242F933F934F935D
:102020005F936F937F938F939F93AF93BF93EF9340
:10203000FF93E0912702F0912802309709F451C0F4
:10204000968DA685B785858591FF04C09C918923CF
:1020500029F447C09C91892309F043C0A389B4891E
:102060009C918589809589238C938689978901978E
:10207000F1F7608D718DA685B785558538E020E034
:10208000CB010197F1F7822F90E095958795282F46
:102090004C91452309F02068315091F7868D81FDE0
:1020A00020958091250290E001968F7399273091B9
:1020B0002602381749F0A0912502B0E0AB51BE4F7F
:1020C0002C938093250203C0868D8160868F828D3C
:1020D000938D0197F1F7A389B4899C918589892B08
:1020E0008C93FF91EF91BF91AF919F918F917F91D1
:1020F0006F915F914F913F912F910F900FBE0F9075
:102100001F901895CF93FC01C48121E020934902D0
:10211000C093EB0210924D0210924C028485682B02
:102120008CEE92E00E94F90A90914C02913208F0F4
:1021300045C0809153028111FCCF82E0809353020D
:1021400081E0809355028FEF8093520210927702C4
:1021500090937602A9E2B2E0E6E5F2E080E098171B
:1021600021F02D9121938F5FFACF10927802809108
:102170007802CC0FC82BC093780280915402813032
:1021800061F410925402809178028093BB00809198
:10219000BC0083FDF8CF85EC01C085EE8093BC00C8
:1021A000809153028230E1F3809152028F3F31F0EF
:1021B00080915202803211F08091520210924D02B1
:1021C00010924C0210924902CF9108950F931F93E1
:1021D000CF938C01C62F0E9482106C2F6460C801BF
:1021E0000E9482106C2F6B7FC8010E94821083ECCA
:1021F00090E00197F1F7CF911F910F9108950F9300
:102200001F93CF93DF938C01C62FD42F607F642B55
:102210000E94E61080E1C89FB00111246D2BC80117
:10222000DF91CF911F910F910C94E61041E00E9435
:10223000FF1081E090E00895833081F028F4813030
:1022400099F08230A1F008958730A9F08830B9F074
:102250008430D1F4809180008F7D03C08091800014
:102260008F7780938000089584B58F7702C084B5FE
:102270008F7D84BD08958091B0008F7703C08091D9
:10228000B0008F7D8093B00008951F93CF93DF93AC
:10229000282F30E0F901E653FC4F8491F901EA5F01
:1022A000FB4FD491F901EE50FC4FC491CC23C1F007
:1022B000162F81110E941C11EC2FF0E0EE0FFF1F72
:1022C000E851FC4FA591B4919FB7F894111104C047
:1022D0008C91D095D82302C0EC91DE2BDC939FBF6C
:1022E000DF91CF911F910895CF93DF9390E0FC0190
:1022F000EA5FFB4F2491FC01EE50FC4F8491882350
:1023000061F190E0880F991FFC01E054FC4FC591EA
:10231000D491FC01E851FC4FA591B491611109C021
:102320009FB7F8948881209582238883EC912E238F
:102330000BC0623061F49FB7F8948881322F3095DA
:1023400083238883EC912E2B2C939FBF06C08FB7DD
:10235000F894E8812E2B28838FBFDF91CF910895C9
:102360000F931F93CF93DF93EC018881998100979E
:1023700029F02A813B812617370788F48B016F5F8C
:102380007F4F0E942B2A009761F0998388831B83DB
:102390000A832C813D81232B11F4FC01108281E002
:1023A00001C080E0DF91CF911F910F9108951F929E
:1023B0000F920FB60F9211242F933F934F935F9379
:1023C0006F937F938F939F93AF93BF93EF93FF93FD
:1023D0008091E7029091E802A091E902B091EA02AF
:1023E000892B8A2B8B2B59F19091E602E091E40224
:1023F000F091E5028081892780838091E7029091A6
:10240000E802A091E902B091EA02181619061A062C
:102410001B060CF03DC08091E7029091E802A0916C
:10242000E902B091EA020197A109B1098093E7029C
:102430009093E802A093E902B093EA0229C0809148
:102440000001EFEBF3E0E4919FEF90930001E130A6
:10245000B9F098F0E230C9F4909170009D7F9093AC
:10246000700091E09093B0009091B100987F9460DB
:102470009093B1001092B30008C010926E0005C096
:1024800090916F009D7F90936F0060E00E944511D6
:10249000FF91EF91BF91AF919F918F917F916F913C
:1024A0005F914F913F912F910F900FBE0F901F9012
:1024B00018956115710579F0FB0101900020E9F78D
:1024C0003197AF01461B570BDC01ED91FC91028067
:1024D000F381E02D099480E090E008951F920F921F
:1024E0000FB60F9211242F933F934F935F936F93E7
:1024F0007F938F939F93AF93BF93EF93FF9388EF57
:1025000092E00E94460FFF91EF91BF91AF919F9192
:102510008F917F916F915F914F913F912F910F908C
:102520000FBE0F901F9018951F920F920FB60F922B
:1025300011242F938F939F93EF93FF93E0910803C0
:10254000F09109038081E0910E03F0910F0382FD69
:1025500012C09081809111038F5F8F7320911203BD
:10256000821751F0E0911103F0E0E850FD4F958F94
:102570008093110301C08081FF91EF919F918F9112
:102580002F910F900FBE0F901F9018958F929F92D2
:10259000AF92BF92CF92DF92EF92FF926B017C01DC
:1025A0000E94E10F4B015C01C114D104E104F1046C
:1025B000F1F00E94E10FDC01CB0188199909AA0909
:1025C000BB09883E9340A105B10570F321E0C21A12
:1025D000D108E108F10888EE880E83E0981EA11C5E
:1025E000B11CC114D104E104F10419F7DDCFFF904F
:1025F000EF90DF90CF90BF90AF909F908F90089515
:102600002FB7F8946091DC027091DD028091DE02B8
:102610009091DF022FBF08956F927F928F929F92C9
:10262000AF92BF92CF92DF92EF92FF920F931F93E0
:10263000CF93DF938C01EB0180919D0390919E03DA
:102640000E94790E882309F447C0B80180919D0348
:1026500090919E030E945A0E40E06EEB80919D0384
:1026600090919E030E94260E8E016E0189E0C80E95
:10267000D11C7E01A0909D03B0909E0388E0882E1F
:10268000912C712C66246394C5010E94D30D811195
:102690007628660CE1E08E1A9108B1F7F701719285
:1026A0007F01CE16DF0631F780919D0390919E0346
:1026B0000E94790E813081F4F80181918F0181119E
:1026C00004C0EC15FD05C1F707C068E0CE010E940B
:1026D000BB0D91E02885281390E0892FDF91CF91E1
:1026E0001F910F91FF90EF90DF90CF90BF90AF9030
:1026F0009F908F907F906F900895CF93DF93CDB789
:10270000DEB729970FB6F894DEBF0FBECDBFBE016E
:102710006F5F7F4F0E940C13882389F08D818F3368
:1027200061F020F48F3159F489E00CC08F3519F035
:102730008F3739F004C08BE005C08AE003C080E029
:1027400001C08CE029960FB6F894DEBF0FBECDBF56
:10275000DF91CF9108954F925F926F927F928F9207
:102760009F92AF92BF92CF92DF92EF92FF920F9320
:102770001F93CF93DF93CDB7DEB729970FB6F894A9
:10278000DEBF0FBECDBF90E08C0100541B4FF8019F
:102790002081213140F43581332329F0333619F07B
:1027A000662309F4F5C0F8011082F3E0880F991F41
:1027B000FA95E1F79C012F5F3E4F7901F901808185
:1027C000803141F0C9010E947D13D82E882309F47D
:1027D00068C002C0ECE0DE2E80919D0390919E03C4
:1027E0000E94790EB70180919D0390919E030E94F3
:1027F0005A0E4091950364E480919D0390919E034D
:102800000E94260E80919903882309F44AC0E7EFBD
:10281000ED0DE33040F4F0E0EE0FFF1FE958FE4FFE
:102820008081918102C08EEE92E04C01990FAA083E
:10283000BB0880919A038823F1F080919503811160
:102840001AC00E9400132B013C0180919D039091BE
:102850009E030E94D30D813021F10E940013DC0100
:10286000CB0184199509A609B70988159905AA0508
:10287000BB0558F316C080919603882329F060E0C9
:10288000809197030E944511C501B4010E94C612B0
:1028900080919603882329F061E0809197030E943C
:1028A0004511BE016F5F7F4FC7010E940C13882343
:1028B00079F12A8130E0C901982F8827990F990F63
:1028C000990F6981F8E06F9FB00111249C01262BBC
:1028D000372BF70180818031F1F468856623D9F0C8
:1028E00070E08F81AB01481B5109CA019695982F62
:1028F0008827979587950E94A02760527109207FAD
:1029000053E0220F331F5A95E1F7620F731F04C083
:1029100060E874EE01C0B901613854EE7507FCF04F
:10292000072E000C880B990B0E94492620E030E00E
:1029300040E05CE30E94A8266B017C0120E030E0CF
:1029400046EC52E40E94052918164CF020E030E0D5
:10295000A901C701B6010E94422687FF12C0F801F3
:102960006581633641F070E080E090E00E94472688
:102970006B017C0106C0C12CD12C86ECE82E82E4D0
:10298000F82EC701B6010E94CF28F801658303C065
:102990002F5FF801208329960FB6F894DEBF0FBE93
:1029A000CDBFDF91CF911F910F91FF90EF90DF90FE
:1029B000CF90BF90AF909F908F907F906F905F90DF
:1029C0004F9008958F929F92AF92BF92CF92DF92D5
:1029D000EF92FF920F931F93CF93DF9300D000D01D
:1029E000CDB7DEB720912D04298320912E042A83B0
:1029F00020912F042B83209130042C837C018E01A5
:102A00000F5F1F4F6E0185E0C80ED11CF701619169
:102A10007F01F80181918F010E9445110C151D0560
:102A2000A9F71AE0C12CD12C76010EE48091610443
:102A30008E3008F08E508770806480937C00809187
:102A40007A00806480937A0080917A0086FDFCCFC2
:102A5000609178008091790070E0782B072E000C4F
:102A6000880B990B0E9449264B015C0100937C0066
:102A700062E070E080E090E00E94C61280917A00EF
:102A8000806480937A0080917A0086FDFCCF20914B
:102A900078006091790070E0762F6627CB01770F80
:102AA000AA0BBB0BBC01CD01622B0E9449269B01E6
:102AB000AC0163E27BED89E894E40E945D2820E0AC
:102AC00030EC4FE754E40E945D28A50194010E9478
:102AD000A8269B01AC01C701B6010E94F1276B013A
:102AE0007C01115009F0A2CF20E030E040E251E437
:102AF0000E945D280F900F900F900F90DF91CF9163
:102B00001F910F91FF90EF90DF90CF90BF90AF900B
:102B10009F908F900895EF92FF920F931F93CF9302
:102B2000DF93382F20916E04662379F041E050E066
:102B300060E070E004C0440F551F661F771F8A9540
:102B4000D2F7422B40936E040FC081E090E0A0E0EA
:102B5000B0E004C0880F991FAA1FBB1F3A95D2F797
:102B60008095822380936E0460E0809162040E94CD
:102B7000451100916E04F0906304E0906404C7E096
:102B8000D0E010E0B8010C2E02C0759567950A944C
:102B9000E2F761708E2D0E94451161E08F2D0E9439
:102BA000451160E08F2D0E944511219758F761E093
:102BB00080916204DF91CF911F910F91FF90EF9070
:102BC0000C944511CF93DF93CDB7DEB728970FB69E
:102BD000F894DEBF0FBECDBF98E0EFEBF1E0DE0171
:102BE000119601900D929A95E1F79091D203981762
:102BF00010F48FEF890FFE013196E80FF11DE80FF9
:102C0000F11D6081606840E08AEC93E028960FB681
:102C1000F894DEBF0FBECDBFDF91CF910C94FF10B3
:102C2000E82FF0E0EE59FB4F60E083810C948B15A8
:102C300080E00E94E2156FE674E08AEC93E00E9467
:102C4000591281E00E94E2156FE774E08AEC93E08C
:102C50000C94591240E061E08AEC93E00E94FF106E
:102C60008BE39FE10197F1F78091D303882319F05B
:102C700080E00C94E21508950F931F93CF93DF9398
:102C8000C82FD0E08E0109521C4FF8019081953079
:102C900029F0963059F0923059F408C060E0FE01F6
:102CA000EE59FB4F87810E948B1502C00E941016BF
:102CB0000E940013FE01EE0FFF1FEE0FFF1FE157F2
:102CC000FB4F6083718382839383C157DB4F188AE4
:102CD0001C8A188E87E0F8018083DF91CF911F91C5
:102CE0000F910895AF92BF92CF92DF92FF920F9310
:102CF0001F93CF93DF93F82EC82FD0E08E01095297
:102D00001C4FD801EC918E2F90E06E01CC0CDD1C95
:102D1000CC0CDD1CFE01EC52FB4F5F0188309105AD
:102D200008F0CAC0FC01E95BFF4F0C94D62781E094
:102D300021C061E08F2D0E94AB13FE01E054FB4FD8
:102D40008581828782E0F8018083CE01880F991FF8
:102D5000880F991F8F5C9B4F0E94E214F601EA5E78
:102D6000FB4F6083718382839383A6C08F2D0E9463
:102D7000101683E0D8018C939FC0FE01EE0FFF1F59
:102D8000E952FC4F87A990AD0197843F914010F024
:102D900083E03BC01092DF031092E0031092E10346
:102DA0001092E2031092E3031092E4031092E50301
:102DB0001092E6031092E7031092E8031092E903E1
:102DC0001092EA0384E033C061E08F2D0E94AB13C0
:102DD000FE01E054FB4F8581828785E0CBCF1092C6
:102DE000FD03FE01EE0FFF1FEE0FFF1FE551FC4F2D
:102DF00020E030E04AE754E4608171818281938170
:102E00000E94422687FF09C085E0F801E15BFF4F81
:102E100080838F2D0E943C164FC061E08F2D0E9451
:102E2000AB13FE01E054FB4F8581828786E0F801F9
:102E3000808342C08F2D0E941016F801E15BFF4F86
:102E4000108287E097CF1092DF031092E003109278
:102E5000E1031092E2031092E3031092E403109254
:102E6000E5031092E6031092E7031092E803109234
:102E7000E9031092EA03FE01EE0FFF1FEE0FFF1FA2
:102E8000E551FC4F1082118212821382FE01EE0F77
:102E9000FF1FE952FC4F10AE17AA1092FD03F60176
:102EA000EA5EFB4F1082118212821382F8011082B7
:102EB000F501E057FE4F1082D80114961C920E9433
:102EC0000013F601E157FB4F608371838283938384
:102ED000C157DB4F188A1C8A188EF501EC56FE4F3D
:102EE0001082DF91CF911F910F91FF90DF90CF90D3
:102EF000BF90AF9008952F923F924F925F926F9242
:102F00007F928F929F92AF92BF92CF92DF92EF9279
:102F1000FF920F931F93CF93DF9300D000D0CDB7D4
:102F2000DEB7382E262E282F30E03C832B83F90184
:102F3000EE59FB4F61E083810E948B15AB80BC8012
:102F40003FEFA31AB30AC501880F991F880F991F75
:102F5000835D9B4F0E94E2146093DF037093E00354
:102F60008093E1039093E2038B819C81880F991FEA
:102F7000880F991F8F5A9B4F0E94E2148B809C8070
:102F8000880C991C880C991CF401E953FE4F208190
:102F90003181428153810E94052987FD32C00B8116
:102FA0001C8109521C4FF8018481883040F4832D24
:102FB0000E941016F80184818F5F848322C0EB8108
:102FC000FC81E859F94F8081882321F0832D0E94EC
:102FD000721617C0E4EDF4E001900020E9F71F92AB
:102FE0003F9229EF34E03F932F93CF0101979F93B6
:102FF0008F930E9486230F900F900F900F900F9049
:103000000F908091BB040B811C8100541B4F2B81BE
:103010003C8121573B4F3C832B83381277C0F8010A
:10302000F581F983F401EA5EFB4FC080D180E28034
:10303000F3804090DF035090E0036090E1037090D4
:10304000E203F90140893489208D211003C08CEB03
:1030500094E002C083EC94E01F924F931F923F9341
:103060001F922F939F938F93BF92AF9284EE94E021
:103070009F938F938FE694E09F938F930E94862374
:1030800020E030E048EC52E4C301B2010E94A826DF
:103090000E94CF2894E6A92EB12CCB01B5010E9445
:1030A000A0279F938F93C301B2010E94CF287F93E3
:1030B0006F931F928FED8F931F92F981FF9320E002
:1030C00030E048EC52E4C701B6010E94A8260E94F5
:1030D000CF28CB01B5010E94A0279F938F93C701F2
:1030E000B6010E94CF287F936F938AEC94E09F9360
:1030F0008F938FE794E09F938F930E9486230E9483
:1031000018160FB6F894DEBF0FBECDBF4090DF0398
:103110005090E0036090E1037090E203EB81FC814A
:10312000F489F983F401EA5EFB4F80809180A280EC
:10313000B380F801F685FA8320E030E048EC52E4F1
:10314000C301B2010E94A8260E94CF2884E6E82E7F
:10315000F12CCB01B7010E94A027D82EC92EC301A4
:10316000B2010E94CF28762E672EF801558020E00C
:1031700030E048EC52E4C501B4010E94A8260E9448
:10318000CF28CB01B7010E94A027F82EE92EC50158
:10319000B4010E94CF28F8014285EB81FC8180892F
:1031A0005981FCE35F9F90011124280F311DEB81B1
:1031B000FC81508DE0E1FEE05E9FC0015F9F900DBD
:1031C0001124280F391F211002C056E001C052E01F
:1031D000E4EDF4E001900020E9F71F928A818F93DB
:1031E0001F923F92CF92DF926F927F921F923F92F7
:1031F0001F925F921F923F92EF92FF927F936F9385
:103200001F923F921F924F931F923F923F932F9393
:103210001F923F921F925F931F923F9229E734E0E3
:103220003F932F93CF0101979F938F930E94862303
:103230000FB6F894DEBF0FBECDBF0F900F900F906A
:103240000F90DF91CF911F910F91FF90EF90DF9042
:10325000CF90BF90AF909F908F907F906F905F9036
:103260004F903F902F900895CF93C82F60E00E9419
:10327000AB13EC2FF0E0E054FB4F85819685981757
:1032800018F4833609F08687282F30E09091C9041E
:10329000291B3109283031054CF0833639F0882359
:1032A00041F02B30310524F481E003C080E001C0FF
:1032B00082E0CF9108954F925F926F927F928F92AA
:1032C0009F92AF92BF92CF92DF92EF92FF920F93B5
:1032D0001F93CF93DF93C82F0E940013D0E08E017D
:1032E00001571B4FCC0FDD1FCC0FDD1FC157DB4F2C
:1032F000C880D980EA80FB806C197D098E099F09FE
:1033000030E8C32E3EEED32E36E3E32EF12CA70198
:1033100096010E94B427F801208F0E940013888034
:103320009980AA80BB80681979098A099B09A7013D
:1033300096010E94B42740E6842E4AEE942EA12CDA
:10334000B12CA50194010E94B427F801248B0E949E
:103350000013488059806A807B806419750986094A
:103360009709A70196010E94B427A50194010E9424
:10337000B42728EE33E040E050E00E94B427F80183
:10338000208BDF91CF911F910F91FF90EF90DF90F5
:10339000CF90BF90AF909F908F907F906F905F90F5
:1033A0004F9008954F925F926F927F928F929F926B
:1033B000AF92BF92CF92DF92EF92FF920F931F9343
:1033C000CF93DF93CDB7DEB7182F962E842EB22E73
:1033D00028A139A1E4EDF4E001900020E9F7CF0144
:1033E000855D94402C013F932F931F921F9320E003
:1033F00030E048EC52E46F89788D898D9A8D0E9477
:10340000A8260E94CF2884E6682E712CCB01B30138
:103410000E94A0279F938F936F89788D898D9A8DB5
:103420000E94CF287F936F931F921F936B8D7C8D8B
:103430008D8D9E8D0E94CF287F936F931F921F9337
:103440001F928F8D8F931F921F9320E030E048ECE6
:1034500052E46B897C898D899E890E94A8260E94EE
:10346000CF28CB01B3010E94A0279F938F936B8934
:103470007C898D899E890E94CF287F936F931F92AC
:103480001F931F92AF921F921F9320E030E048ECF1
:1034900052E4C701B6010E94A8260E94CF28CB01A2
:1034A000B3010E94A0279F938F93C701B6010E948A
:1034B000CF287F936F931F921F931F920F931F929A
:1034C0001F932B2D30E09CE3899E200D311D11248C
:1034D00040E15EE0949EC001959E900D1124280F5E
:1034E000391F3F932F931F921F931F921F938AE1BF
:1034F00094E09F938F93C2018C529B4F9F938F9325
:103500000E9486230FB6F894DEBF0FBECDBFDF91B9
:10351000CF911F910F91FF90EF90DF90CF90BF90D0
:10352000AF909F908F907F906F905F904F90089595
:10353000CF93DF93CDB7DEB766970FB6F894DEBFB3
:103540000FBECDBF789484B5826084BD84B58160A0
:1035500084BD85B5826085BD85B5816085BD80915E
:103560006E00816080936E001092810080918100D6
:1035700082608093810080918100816080938100CE
:10358000809180008160809380008091B100846090
:103590008093B1008091B00081608093B0008091F1
:1035A0007A00846080937A0080917A0082608093B0
:1035B0007A0080917A00816080937A0080917A000D
:1035C000806880937A001092C10010924B02109292
:1035D0004A0210924D0210924C021092530281E066
:1035E000809355021092540261E082E10E944511DD
:1035F00061E083E10E9445118091B9008E7F809344
:10360000B9008091B9008D7F8093B90088E48093E0
:10361000B80085E48093BC008FE99AE090934F0254
:1036200080934E0280EA9AE0909351028093500278
:103630001092CF038091D503823018F098E09093D8
:10364000CF038093D20362E370E080E090E00E94B9
:10365000C6126091D6038AEC93E00E94821068EE55
:1036600073E080E090E00E94C61260E38AEC93E091
:103670000E94E6100BE416E4C8010197F1F760E33D
:103680008AEC93E00E94E610C8010197F1F760E32D
:103690008AEC93E00E94E61083E592E00197F1F74F
:1036A00060E28AEC93E00E94E6106091CF036062D2
:1036B00040E08AEC93E00E94FF1084E08093D00306
:1036C00040E06CE08AEC93E00E94FF100E942A1612
:1036D00082E08093D10340E066E08AEC93E00E94B0
:1036E000FF1040E062E08AEC93E00E94FF108BE361
:1036F0009FE10197F1F70E942A1688E08093D60394
:1037000060E08AEC93E00E94821085EB90E09F934A
:103710008F9386EC90E09F938F938FE694E09F9336
:103720008F930E9486238EE990E09F938F938FEA78
:1037300090E09F938F938FE794E09F938F930E94E5
:1037400086230E94181661E080912D040E94741156
:1037500061E080912E040E94741161E080912F0439
:103760000E94741161E0809130040E94741160E045
:1037700080912D040E94451160E080912E040E94EA
:10378000451160E080912F040E94451160E0809116
:1037900030040E94451160E0809161040E94741120
:1037A00061E0809162040E94741161E08091630481
:1037B0000E94741161E0809164040E94741160E0C1
:1037C000809162040E94451161E080916D040E9425
:1037D000741160E080916D040E944511B9E6EB2EF2
:1037E000B4E0FB2E0FB6F894DEBF0FBECDBF10E0E5
:1037F000812F0E94101660E0F70181917F010E94E5
:103800008B151F5F1430A1F760E08091D3040E94F4
:103810007411E0919D03F0919E0313861586148622
:10382000DF011B9633961E92AE17BF07E1F7109289
:103830009B0310929C03BB24B394AA24A3940091ED
:103840009D0310919E03F801858581116FC0C80109
:103850000E94790E882309F469C040E060EFC80136
:103860000E94260EEE24E394C12C912CFF24F394A5
:10387000C8010E94D30DD82EC8010E94D30DF1E0DB
:10388000DF1203C08130C1F437C02C2D30E0D812D4
:103890001DC0F8018385F81630F4E20FF31F838111
:1038A0008E2151F402C08F1539F0D12CF8E0FF15AC
:1038B00060F0F801F48609C0F801EC0DF11D838178
:1038C0008E298383DD24D39409C09F2CF801E20F55
:1038D000F31F93818E2D8095892383836D2DC801DD
:1038E0000E94F70DF394EE0C19F4C394EE24E394C4
:1038F000F7E0FC1508F0BCCF20E42F15B8F4F80170
:103900009386911001C0B586F8018381882371F0F8
:10391000D8011396FE013196055F1F4FFE2EEF2E44
:103920008D9181930A171B07D9F75EC4F80113869E
:1039300015861486E0910803F091090382E08083E4
:10394000E0910403F09105031082E0910603F091E9
:1039500007038FEC808310921003E0910C03F09129
:103960000D0386E08083E0910A03F0910B038081D0
:1039700080618083E0910A03F0910B03808188606D
:103980008083E0910A03F0910B038081806880833B
:10399000E0910A03F0910B0380818F7D808385E0A5
:1039A00090E0A0E0B0E08093FC029093FD02A09331
:1039B000FE02B093FF021092C6031092C50310924C
:1039C000C4031092C3031092C2031092C1038DE985
:1039D00091E09093C8038093C7039091B703963109
:1039E00008F058C02DEB30E03093C2032093C103A0
:1039F0002BE931E03093C4032093C3032CE231E080
:103A00003093C6032093C50340916800983058F066
:103A100031E09E3008F430E021E0822F01C0880FB1
:103A20003A95EAF701C084E0842B809368009830CF
:103A300038F09E3040F0963148F42CE630E008C073
:103A40002DE630E005C02BE630E002C020E030E09B
:103A50003093BF032093BE03983030F481E001C05F
:103A6000880F9A95EAF70EC0292F30E09E3018F49F
:103A70002850310902C02E50310981E001C0880F61
:103A80002A95EAF78093C0038091C7039091C803F9
:103A90000197F1F78091C5039091C603892B49F1F5
:103AA000E0912702F091280223E0EB3AF20709F1B6
:103AB000309739F0A389B4899C91858980958923B1
:103AC0008C938091C9038E7F8093C9031092250245
:103AD000109226028BEA93E09093280280932702AB
:103AE000E091BE03F091BF0390818091C003892BC8
:103AF000808385E090E0A0E0B0E08093AF039093F6
:103B0000B003A093B103B093B20361E080916D0460
:103B10000E944511F5E6AF2EF4E0BF2EA1E3EA2E98
:103B2000A4E0FA2E10E061E0F50181915F010E94AE
:103B30008B1564EF71E080E090E00E94C612C7012F
:103B40000E94E2146701F0E1CF0ED11CC6010E9471
:103B5000E214812F0E94101664EF71E080E090E083
:103B60000E94C612C7010E94E214C6010E94E2141C
:103B700061E0812F0E94AB131F5F24E0E20EF11C75
:103B8000143089F660E084E00E94AB1368EE73E0C5
:103B900080E090E00E94C61260E080916D040E9477
:103BA000451178EC472E512C612C712CEFE98E2EAB
:103BB000EFE09E2E0E9400130091B7041091B8040C
:103BC0002091B9043091BA04DC01CB01801B910B28
:103BD000A20BB30B0597A105B10508F428C10E94FB
:103BE00000136093B7047093B8048093B904909362
:103BF000BA042091D30430E0F901E653FC4F8491DC
:103C0000F901EA5FFB4F1491F901EE50FC4F04916A
:103C1000002379F081110E941C11E02FF0E0EE0FDB
:103C2000FF1FE252FC4FA591B491EC911E2381E05D
:103C300009F480E081709091D204891711F0982FD7
:103C400001C090E08093D204992309F4F0C08091E0
:103C5000BF0490910001891721F09F3F09F0D2C065
:103C600004C0EFEBF3E014917BC080930001EFEB15
:103C7000F3E0E491EF3F09F4C5C0E13009F44AC034
:103C800060F1E23009F06BC01092B0001092B10008
:103C90009091B00092609093B0009091B1009160CB
:103CA0009093B100282F30E0F901EE50FC4FE491E1
:103CB000F0E0EE0FFF1FE851FC4F459154915093F7
:103CC000E5024093E402F901EA5FFB4FE491E093DF
:103CD000E60261E00E94741161C014BC15BC94B589
:103CE000926094BD95B5916095BD282F30E0F901A3
:103CF000EE50FC4FE491F0E0EE0FFF1FE851FC4F57
:103D000045915491F901EA5FFB4FE491E093DB01A7
:103D100010E028C0109280001092810090918100E4
:103D200098609093810090918100916090938100C0
:103D3000282F30E0F901EE50FC4FE491F0E0EE0F57
:103D4000FF1FE851FC4F45915491F901EA5FFB4F89
:103D5000E491E093DA0161E00E94741129C01E2F02
:103D600017FD50C061E00E947411112319F0123048
:103D7000E9F414C085B5887F836085BD8DE387BD78
:103D80004092E0015092E1016092E2017092E30101
:103D900080916E00826080936E0034C08091B1008B
:103DA000887F83608093B1008CE71DC01130C1F41F
:103DB00080918100887F816080938100909289004A
:103DC000809288004092DC015092DD016092DE0119
:103DD0007092DF0180916F00826080936F0012C04B
:103DE000123081F48FE98093B3004092E702509241
:103DF000E8026092E9027092EA02809170008260AB
:103E0000809370008091BC04882361F01092BD04FF
:103E10008091BB04833019F41092BB0403C08F5F00
:103E20008093BB0481E08093BC040E94F6020E9450
:103E300000130091AF041091B0042091B1043091AF
:103E4000B204DC01CB01801B910BA20BB30B803AB7
:103E50009F40A105B10528F10E9400136093AF04B3
:103E60007093B0048093B1049093B2048091BC0429
:103E7000882369F08091BD04803120F48F5F8093A6
:103E8000BD040FC01092BD041092BC040AC0809102
:103E9000BB04833019F41092BB0403C08F5F80937E
:103EA000BB048BEA93E00E94900B181619060CF0E5
:103EB0002CC1CE010F960E94630CCE0109960E9480
:103EC000630CCE0101960E94630C0E942F0C97FD9B
:103ED0001BC08D8B1E8A0D811E810F5F1F4FB80185
:103EE000CE0101960E94B011882379F329813A818D
:103EF0008D819E81BE016B5E7F4F820F931F0E945A
:103F0000FF2A1E830D83E1CF89859A850097A9F04A
:103F100069817A816115710571F04B855C852D8110
:103F20003E814217530738F00E94FF2A8D819E81FF
:103F30009E878D8710C00E94A22989819A819A87C5
:103F400089878B819C819C878B878D819E819E87B1
:103F50008D871A82198289819A810E94A2296AE03A
:103F600070E080E090E00E94C6124D855E85698514
:103F70007A8588EF92E00E94D20E67ED71E088EFBB
:103F800092E00E945912C984DA84C114D104E9F183
:103F90000D851E8501151105C1F176015701FFEF51
:103FA000AF1ABF0AF7018081082E000C990B0E94FE
:103FB0008925892B11F07501F1CF015011090C0DE4
:103FC0001D1DF8018081082E000C990B0E94892587
:103FD000892B31F00E151F0518F001501109F1CF92
:103FE000A8014F5F5F4F4E195F095E874D87CE1462
:103FF000DF0420F4B701C6010E94F62AE985FA859C
:104000008D859E85E80FF91F10828D859E8502970C
:1040100008F465C0F12C0F2D10E08D859E8580176A
:10402000910708F469C084ED90E00E94FF098F2D8C
:1040300090E0A0E0B0E04AE0BC01CD010E942A0A75
:104040008CEC90E00E94FF098D859E85081719076A
:1040500048F489859A85009729F0FC01E00FF11F4B
:10406000608101C060E088EF92E00E94680F67ED18
:1040700071E088EF92E00E9459128D859E850817A5
:10408000190760F489859A85009761F0FC01E00FBB
:10409000F11F80818A3309F410C105C00817190780
:1040A00009F40BC180E089831A820B891C890F5F98
:1040B0001F4FB801CE010F960E94B011882369F0FE
:1040C0002F8538898B899C89BE016F5F7F4F820F56
:1040D000931F0E94FF2A1C8B0B8BF3949CCF898526
:1040E0009A85009719F00E944A2303C060E070E0AF
:1040F000CB01CB010E94DC0B89859A850E94A22905
:104100008F8598890E94A229CCCE0E94001300912D
:10411000B3041091B4042091B5043091B604DC01CD
:10412000CB01801B910BA20BB30B803A9F40A105E2
:10413000B10570F00E9400136093B3047093B4044F
:104140008093B5049093B60481E08093BE0402C0CE
:104150001092BE040E9400130091AB041091AC04B5
:104160002091AD043091AE04DC01CB01801B910B9A
:10417000A20BB30B883E9340A105B10560F00E94ED
:1041800000136093AB047093AC048093AD049093E0
:10419000AE040E94F6028091BE04882311F1809142
:1041A000D4048823F1F064ED74E08BEA93E00E947C
:1041B000591267ED71E08BEA93E00E94591264EDA9
:1041C00074E088EF92E00E94591267ED71E088EF89
:1041D00092E00E94591269ED71E084ED94E00E9432
:1041E000FF2A0E94D70FE6CC67E08F2D9E2D0E94FC
:1041F000BB0D9885891323CB80919503811125C030
:1042000080919D0390919E030E94790E6F2D7E2DCB
:1042100080919D0390919E030E945A0E40E064EBB2
:1042200080919D0390919E030E94260E80919D0394
:1042300090919E030E94D30D182F80919D03909121
:104240009E030E94790E112379F1109198038981C0
:10425000803109F464C08F2D9E2D0E947D1381173B
:1042600018F48091980309C08981803111F48CE0A1
:1042700004C08F2D9E2D0E947D1380939803809102
:104280009B038F5F80939B038981883281F030F498
:10429000803169F0823209F0D2CA09C08B3339F01B
:1042A000823409F0CCCA03C0A0929503CECF80918E
:1042B0009C038F5F80939C03C2CA8F859889009767
:1042C00051F10E944A236115710511F0CB0102C022
:1042D00089E090E00E94DC0B60E070E0CE010F9678
:1042E0000E94B0112F85388981110DC0211531052B
:1042F00019F0C9010E94A229188A1F861C8A1B8AEC
:104300001A8A198AEACE1C8A1B8A69ED71E0C901F2
:104310000E94FF2AE2CE60E070E0CB01D4CF1D30D6
:1043200008F09FCFA4CF85EA91E09093AC038093EF
:10433000AB0380912702909128028B5A934071F42D
:10434000E091BE03F091BF0390818091C0038095FE
:1043500089238083109228021092270208951092D8
:10436000EF021092EE0288EE93E0A0E0B0E08093BE
:10437000F0029093F102A093F202B093F30221E8CD
:1043800031E03093ED022093EC021092FB02109288
:10439000FA028093FC029093FD02A093FE02B09378
:1043A000FF0283E991E09093F9028093F80285EC93
:1043B00090E0909305038093040384EC90E0909345
:1043C00007038093060380EC90E0909309038093A9
:1043D000080381EC90E090930B0380930A0382EC36
:1043E00090E090930D0380930C0386EC90E0909303
:1043F0000F0380930E031092110310921203109278
:1044000013031092140360E084E00E947411EAE048
:10441000F4E0E491E0936C06E6EFF3E0E491F0E081
:10442000EE0FFF1FE252FC4F8591949190936E0620
:1044300080936D0610927706109279061092780696
:10444000E7E7F6E08FE696E012928E179F07E1F716
:104450008CE696E090939E0380939D0310929B03BD
:1044600010929C031092950389E08093980361E079
:104470006093990360939A031092AA031092A90380
:10448000109296031092AE031092AD0388EE93E063
:10449000A0E0B0E08093AF039093B003A093B1038A
:1044A000B093B20385EA91E09093AC038093AB03A1
:1044B0001092C2031092C1031092C4031092C3035E
:1044C0001092C6031092C5031092C8031092C7033E
:1044D0008091C9038E7F8D7F8093C90386958170FB
:1044E000682782E00E94451161E082E00E94741119
:1044F000E8E0F4E0E491E093BB03E4EFF3E0E4915F
:10450000F0E0EE0FFF1FE851FC4F859194919093DE
:10451000BD038093BC0360E083E00E94741180912E
:10452000C90381FD04C061E083E00E94451183E07E
:104530008093B703E9E0F4E0E491E093B803E5EF9A
:10454000F3E0E491F0E0EE0FFF1FE252FC4F8591A3
:1045500094919093BA038093B9031092CD03109273
:10456000CC0387EB91E09093CB038093CA03109226
:10457000D30387E28093CE0380E18093D40392E05B
:104580009093D5031092D6031092DF031092E003AC
:104590001092E1031092E2031092E3031092E403FD
:1045A0001092E5031092E6031092E7031092E803DD
:1045B0001092E9031092EA031092FC031092FB039D
:1045C0001092FD0310922A0410922B0410922C04D6
:1045D0009CE090932D049BE090932E049AE090939E
:1045E0002F0499E090933004EFE3F1E0A1E3B4E00D
:1045F000982F01900D929A95E1F7EFE4F1E0A1E494
:10460000B4E0982F01900D929A95E1F7EFE5F1E073
:10461000A1E5B4E0982F01900D929A95E1F79EE004
:104620009093610497E09093620498E09093630400
:1046300096E09093640440916F01509170016091F5
:104640007101709172014093650450936604609308
:1046500067047093680440917301509174016091F4
:104660007501709176014093690450936A046093D8
:104670006B0470936C0495E090936D0410926E043B
:104680001092BE048093BF041092D2048FE08093F6
:10469000D30408951F93FC0199278827BC01E8944F
:1046A00011911032E9F3193010F01E30C8F31B32AB
:1046B00051F01D3249F4689406C00E947123610FC5
:1046C000711D811D911D119110531A30B0F33EF4EC
:1046D00090958095709561957F4F8F4F9F4F1F915B
:1046E0000895592F482F372F262F660F771F881FC1
:1046F000991F660F771F881F991F620F731F841FF2
:10470000951F660F771F881F991F0895AEE0B0E0D0
:10471000ECE8F3E20C9477270D891E898EE08C83F8
:104720001A8309838FEF9FE79E838D83AE01475ED7
:104730005F4F6F89788DCE0101960E94A823EF818B
:10474000F885E00FF11F10822E96E4E00C94932779
:10475000ABE0B0E0EEEAF3E20C9469276C017B0178
:104760008A01FC0117821682838181FFCCC1CE01B0
:1047700001963C01F6019381F70193FD859193FF2A
:1047800081917F01882309F4BAC1853239F493FD00
:10479000859193FF81917F01853229F4B60190E0E4
:1047A0000E94A825E7CF912C212C312CFFE1F31595
:1047B000D8F08B3279F038F4803279F08332A1F47A
:1047C000232D20611DC08D3261F0803369F4232DCB
:1047D000216016C0832D8260382EE32DE4603E2ECA
:1047E0002AC0F32DF8601DC037FC2DC020ED280F26
:1047F0002A3040F08E32B9F436FC81C1232D20647A
:10480000322E19C036FE06C08AE0989E200D112473
:10481000922E11C0EAE02E9E200D1124222EF32D9F
:10482000F0623F2E08C08C3621F4832D8068382E2C
:1048300002C0883641F4F70193FD859193FF819181
:104840007F018111B3CF982F9F7D9554933028F429
:104850000C5F1F4F9FE399830DC0833631F0833780
:1048600071F0833509F059C021C0F8018081898336
:104870000E5F1F4F88248394912C530113C028018D
:10488000F2E04F0E511CF801A080B18036FE03C04B
:10489000692D70E002C06FEF7FEFC5010E949D257A
:1048A0004C018201F32DFF773F2E16C0280122E034
:1048B000420E511CF801A080B18036FE03C0692D64
:1048C00070E002C06FEF7FEFC5010E9492254C019E
:1048D000F32DF0683F2E820133FC1BC0822D90E047
:1048E00088169906B0F4B60180E290E00E94A825EF
:1048F0002A94F4CFF50137FC859137FE81915F0151
:10490000B60190E00E94A82521102A9421E0821A85
:1049100091088114910471F7E8C0843611F089364A
:1049200041F5F80137FE07C0608171818281938172
:104930000C5F1F4F08C060817181072E000C880B2F
:10494000990B0E5F1F4FF32DFF763F2E97FF09C087
:1049500090958095709561957F4F8F4F9F4FF06830
:104960003F2E2AE030E0A3010E94E425882E86181D
:1049700045C0853731F4232D2F7EB22E2AE030E05A
:1049800025C0932D997FB92E8F36C1F018F4883544
:1049900079F0B5C0803719F0883721F0B0C0E92F21
:1049A000E061BE2EB4FE0DC0FB2DF460BF2E09C029
:1049B00034FE0AC0292F2660B22E06C028E030E05F
:1049C00005C020E130E002C020E132E0F801B7FE8E
:1049D00007C060817181828193810C5F1F4F06C087
:1049E0006081718180E090E00E5F1F4FA3010E9403
:1049F000E425882E8618FB2DFF773F2E36FE0DC04E
:104A0000232D2E7FA22E891458F434FE0BC032FCC5
:104A100009C0832D8E7EA82E05C0B82CA32C03C000
:104A2000B82C01C0B92CA4FE0FC0FE01E80DF11D89
:104A30008081803321F49A2D997EA92E09C0A2FE8F
:104A400006C0B394B39404C08A2D867809F0B39459
:104A5000A3FC11C0A0FE06C0B21488F4280C922C4E
:104A60009B180EC0B21460F4B60180E290E00E9480
:104A7000A825B394F7CFB21418F42B1802C0982CC1
:104A8000212CA4FE10C0B60180E390E00E94A8256E
:104A9000A2FE17C0A1FC03C088E790E002C088E531
:104AA00090E0B6010CC08A2D867859F0A1FE02C0B4
:104AB0008BE201C080E2A7FC8DE2B60190E00E948B
:104AC000A825891438F4B60180E390E00E94A82557
:104AD0009A94F7CF8A94F301E80DF11D8081B60115
:104AE00090E00E94A8258110F5CF222009F442CE43
:104AF000B60180E290E00E94A8252A94F6CFF60144
:104B00008681978102C08FEF9FEF2B96E2E10C9494
:104B1000852791110C941527803219F08950855002
:104B2000C8F70895FC010590615070400110D8F756
:104B3000809590958E0F9F1F0895FC0161507040E5
:104B400001900110D8F7809590958E0F9F1F0895C2
:104B50000F931F93CF93DF93FB01238121FD03C0AC
:104B60008FEF9FEF2CC022FF16C046815781248112
:104B700035814217530744F4A081B1819D012F5F15
:104B80003F4F318320838C93268137812F5F3F4FA6
:104B90003783268314C08B01EC01FB010084F1856F
:104BA000E02D0995892BE1F6D80116968D919C91FF
:104BB0001797019617969C938E931697CE01DF91C7
:104BC000CF911F910F910895FA01AA27283051F132
:104BD000203181F1E8946F936E7F6E5F7F4F8F4F2E
:104BE0009F4FAF4FB1E03ED0B4E03CD0670F781F8D
:104BF000891F9A1FA11D680F791F8A1F911DA11D72
:104C00006A0F711D811D911DA11D20D009F46894AA
:104C10003F912AE0269F11243019305D3193DEF652
:104C2000CF010895462F4770405D4193B3E00FD008
:104C3000C9F7F6CF462F4F70405D4A3318F0495DF3
:104C400031FD4052419302D0A9F7EACFB4E0A695D6
:104C50009795879577956795BA95C9F700976105F8
:104C6000710508959B01AC010A2E0694579547954E
:104C700037952795BA95C9F7620F731F841F951F43
:104C8000A01D08950E94842608F481E00895E89408
:104C900009C097FB3EF490958095709561957F4F84
:104CA0008F4F9F4F9923A9F0F92F96E9BB27939532
:104CB000F695879577956795B795F111F8CFFAF442
:104CC000BB0F11F460FF1BC06F5F7F4F8F4F9F4F73
:104CD00016C0882311F096E911C0772321F09EE8D1
:104CE000872F762F05C0662371F096E8862F70E037
:104CF00060E02AF09A95660F771F881FDAF7880F11
:104D00009695879597F90895990F0008550FAA0B66
:104D1000E0E8FEEF16161706E807F907C0F01216CE
:104D20001306E407F50798F0621B730B840B950BD1
:104D300039F40A2661F0232B242B252B21F4089526
:104D40000A2609F4A140A6958FEF811D811D0895C3
:104D50000E94BB260C942F270E94212738F00E9426
:104D6000282720F0952311F00C9418270C941E2767
:104D700011240C9463270E94402770F3959FC1F380
:104D8000950F50E0551F629FF001729FBB27F00DF9
:104D9000B11D639FAA27F00DB11DAA1F649F66274E
:104DA000B00DA11D661F829F2227B00DA11D621F9D
:104DB000739FB00DA11D621F839FA00D611D221F57
:104DC000749F3327A00D611D231F849F600D211D3B
:104DD000822F762F6A2F11249F5750409AF0F1F0BE
:104DE00088234AF0EE0FFF1FBB1F661F771F881F27
:104DF00091505040A9F79E3F510580F00C94182720
:104E00000C9463275F3FE4F3983ED4F3869577953F
:104E10006795B795F795E7959F5FC1F7FE2B880FCC
:104E2000911D9695879597F9089599278827089554
:104E300097F99F6780E870E060E008959FEF80EC4D
:104E4000089500240A9416161706180609060895F0
:104E500000240A9412161306140605060895092E56
:104E60000394000C11F4882352F0BB0F40F4BF2BC5
:104E700011F460FF04C06F5F7F4F8F4F9F4F089505
:104E800057FD9058440F551F59F05F3F71F04795FB
:104E9000880F97FB991F61F09F3F79F087950895E0
:104EA000121613061406551FF2CF4695F1DF08C0FF
:104EB000161617061806991FF1CF8695710561051C
:104EC00008940895E894BB2766277727CB0197F9C4
:104ED00008952F923F924F925F926F927F928F929E
:104EE0009F92AF92BF92CF92DF92EF92FF920F9379
:104EF0001F93CF93DF93CDB7DEB7CA1BDB0B0FB683
:104F0000F894DEBF0FBECDBF09942A88398848883F
:104F10005F846E847D848C849B84AA84B984C884D5
:104F2000DF80EE80FD800C811B81AA81B981CE0FCC
:104F3000D11D0FB6F894DEBF0FBECDBFED010895B1
:104F400097FB072E16F4009407D077FD09D00E9436
:104F5000DC2707FC05D03EF4909581959F4F08957E
:104F6000709561957F4F0895A1E21A2EAA1BBB1B75
:104F7000FD010DC0AA1FBB1FEE1FFF1FA217B30725
:104F8000E407F50720F0A21BB30BE40BF50B661F3B
:104F9000771F881F991F1A9469F7609570958095FF
:104FA00090959B01AC01BD01CF010895EE0FFF1F4D
:104FB0000590F491E02D0994AA1BBB1B51E107C099
:104FC000AA1FBB1FA617B70710F0A61BB70B881F99
:104FD000991F5A95A9F780959095BC01CD01089528
:104FE0005058BB27AA270E9408280C942F270E94FC
:104FF000212738F00E94282720F039F49F3F19F428
:1050000026F40C941E270EF4E095E7FB0C94182769
:10501000E92F0E94402758F3BA17620773078407E5
:10502000950720F079F4A6F50C9462270EF4E0952C
:105030000B2EBA2FA02D0B01B90190010C01CA0152
:10504000A0011124FF27591B99F0593F50F4503EFD
:1050500068F11A16F040A22F232F342F4427585FEF
:10506000F3CF469537952795A795F0405395C9F707
:105070007EF41F16BA0B620B730B840BBAF09150BF
:10508000A1F0FF0FBB1F661F771F881FC2F70EC05E
:10509000BA0F621F731F841F48F487957795679531
:1050A000B795F7959E3F08F0B0CF9395880F08F01D
:1050B0009927EE0F9795879508950E9471280C9473
:1050C0002F270E94282758F00E94212740F029F41A
:1050D0005F3F29F00C94182751110C9463270C940E
:1050E0001E270E94402768F39923B1F3552391F3BB
:1050F000951B550BBB27AA2762177307840738F047
:105100009F5F5F4F220F331F441FAA1FA9F335D0A3
:105110000E2E3AF0E0E832D091505040E695001C57
:10512000CAF72BD0FE2F29D0660F771F881FBB1F11
:10513000261737074807AB07B0E809F0BB0B802DEF
:10514000BF01FF2793585F4F3AF09E3F510578F01B
:105150000C9418270C9463275F3FE4F3983ED4F334
:10516000869577956795B795F7959F5FC9F7880FEF
:10517000911D9695879597F90895E1E0660F771F41
:10518000881FBB1F621773078407BA0720F0621BD2
:10519000730B840BBA0BEE1F88F7E09508950E94FD
:1051A000D6286894B1110C94632708950E9448276B
:1051B00088F09F5798F0B92F9927B751B0F0E1F0D8
:1051C000660F771F881F991F1AF0BA95C9F714C088
:1051D000B13091F00E946227B1E008950C946227EB
:1051E000672F782F8827B85F39F0B93FCCF38695C1
:1051F00077956795B395D9F73EF49095809570951E
:1052000061957F4F8F4F9F4F08950E94842608F429
:105210008FEF08950F931F93CF93DF938230910503
:1052200010F482E090E0E0917C06F0917D0620E0B1
:1052300030E0A0E0B0E0309719F140815181028167
:10524000138148175907C8F08417950769F4109718
:1052500031F012960C93129713961C9327C000936B
:105260007C0610937D0622C02115310519F04217E6
:10527000530718F49A01BD01EF01DF01F801DBCFFC
:1052800021153105F9F0281B390B2430310580F444
:105290008A819B816115710521F0FB0193838283D3
:1052A00004C090937D0680937C06FE01329644C034
:1052B000FE01E20FF31F819391932250310939834C
:1052C00028833AC020917A0630917B06232B41F443
:1052D00020912B0130912C0130937B0620937A068C
:1052E0002091290130912A012115310541F42DB772
:1052F0003EB740912D0150912E01241B350BE091BA
:105300007A06F0917B06E217F307A0F42E1B3F0B01
:105310002817390778F0AC014E5F5F4F2417350727
:1053200048F04E0F5F1F50937B0640937A0681939F
:10533000919302C0E0E0F0E0CF01DF91CF911F91A7
:105340000F910895CF93DF93009709F481C0FC017A
:10535000329713821282A0917C06B0917D0610973D
:1053600081F420813181820F931F20917A06309140
:105370007B062817390751F5F0937B06E0937A06F0
:1053800067C0ED0120E030E0CE17DF0740F44A812E
:105390005B819E0141155105F1F0EA01F5CFD38300
:1053A000C28340815181840F951FC817D90759F4D2
:1053B00088819981840F951F0296918380838A81C9
:1053C0009B81938382832115310529F4F0937D0617
:1053D000E0937C063DC0E901FB83EA834991599142
:1053E000C40FD51FEC17FD0761F480819181840FF4
:1053F000951F0296E90199838883828193819B831B
:105400008A83E0E0F0E012968D919C9113970097CB
:1054100019F0FD01DC01F7CF8D919C9111979D0151
:105420002E5F3F4F820F931F20917A0630917B06AB
:105430002817390769F4309729F410927D061092E5
:105440007C0602C013821282B0937B06A0937A0678
:10545000DF91CF910895A0E0B0E0E1E3FAE20C948F
:105460006D27EC01009721F4CB010E940A29B4C0FA
:10547000FC01E60FF71F9C0122503109E217F307E8
:1054800008F4A8C0D9010D911C91119706171707B0
:10549000B0F00530110508F49BC0C80104978617C9
:1054A000970708F495C002501109061B170B0193CA
:1054B00011936D937C93CF010E94A22989C05B0157
:1054C000A01AB10A4C01800E911EA0917C06B091E9
:1054D0007D06612C712CE12CF12C109709F446C04B
:1054E0008D919C911197A815B905B1F56C0142E019
:1054F000C40ED11CCA14DB0478F14C018A189B0835
:10550000640142E0C40ED11C1296BC90129713960F
:10551000AC91B5E0CB16D10440F0B282A383918266
:105520008082D9016D937C9309C00E5F1F4F800F5D
:10553000911FF90191838083EB2DFA2FE114F1047F
:1055400031F0D7011396FC93EE93129741C0F0937C
:105550007D06E0937C063CC06816790608F43C01A1
:105560007D0112960D90BC91A02DB7CF80917A0647
:1055700090917B0688169906E1F466167706C8F4C2
:105580008091290190912A01009741F48DB79EB72F
:1055900040912D0150912E01841B950BE817F907BE
:1055A000C8F4F0937B06E0937A06F9017183608377
:1055B0000FC0CB010E940A297C01009759F0A80175
:1055C000BE010E94F62ACE010E94A229C70104C092
:1055D000CE0102C080E090E0CDB7DEB7EEE00C94E3
:1055E000892781E090E0F8940C94062BFB01DC0104
:1055F00002C001900D9241505040D8F70895FB0130
:10560000DC0101900D920020E1F7089512E0C1E85D
:10561000D2E004C0FE010E94D6272196C238D107ED
:06562000C9F7F894FFCF6A
:10562600FF2855E97997050386289009799702039B
:105636004628CF2B7997050359284B6C7997040395
:105646001328C89C79970503C200007E0620003304
:105656003353403333534033335340333353400192
:10566600010001010000010101010001000100012A
:105676000101010001010101000101000001010019
:10568600010001000000010001010000000100000E
:10569600020406010305075E00BC00770100000056
:1056A60000F90ACC0AFC0EBA0DC40AB00AA10A0017
:1056B600000000680FD20EFF0EB50F300F0E0F223E
:1056C6000F00000000400BD20EFC0EBA0D900BB07E
:1056D6000E280B000000001611D20EFC0ED10E0093
:1056E600004000140054005C8F024052B8FE3FB8E0
:0A56F6001E0540AE4701400D0A00FA
:00000001FF
