:100000000C9482020C94AA020C94AA020C94B311D0
:100010000C94B3110C94B3110C94AA020C94821397
:100020000C94AA020C94AA020C94AA020C94AA02A0
:100030000C94AA020C94AA020C94AA020C94AA0290
:100040000C94B31A0C94AA020C94811A0C945B1AA7
:100050000C94AA020C94AA020C94AA020C94AA0270
:100060000C942B0C0C94AA0224039C030E042C0465
:10007000350502068508A908850B880B8B0B8E0BAE
:10008000910B940B970B9A0B9D0BA00BA30B901548
:100090009215AF15B615DD15E81511161A16496E2D
:1000A0006974205450353130302E2E2E2E2E0025DE
:1000B0002D3136530041534344204E414E4F20567C
:1000C000322E302E3000252D31365300204368610A
:1000D000723A2000693A200026435325643D3726B2
:1000E000435625643D25642E25303264264643253B
:1000F000643D256400253034646D2563202020256F
:100100003034646D4168002D4641554C54204348BD
:10011000472054494D45002564252D313553002D88
:100120004641554C54204849474820544D500025DD
:1001300064252D313553002D4641554C54204C4FEC
:1001400057206D4168002564252D313553002D461B
:1001500041554C542048494748204F484D0025649C
:10016000252D313553002D46494E4953484544000D
:100170002564252D39532025642E25303264560000
:1001800026435325643D3526544925643D25642680
:10019000495425643D256426495625643D25642E31
:1001A0002530326426435425643D25642643562574
:1001B000643D25642E2530326426485425643D254F
:1001C00064264D4125643D256426444125643D2532
:1001D000642E25303264264D4F25643D256400256C
:1001E0003032643A253032643A253032642025308A
:1001F00034646D4168002D4443002564252D34533B
:1002000025642E25303264412025642E2530326449
:10021000560026435325643D3426544925643D2524
:100220006426435425643D256426435625643D25B4
:10023000642E25303264002000252D313153256491
:100240002E2530326456002D524553540025642526
:100250002D3753253032643A253032643A25303216
:10026000640026435325643D33264D4F25643D25C8
:100270006426435625643D25642E25303264004DA6
:10028000494C4C494F484D5300252D3130532530B2
:1002900034646D2563002D524553495354414E43F8
:1002A00045002564252D3135530026435325643DF3
:1002B00031002000252D31315325642E2530326444
:1002C00056002D5343414E20424152434F44450076
:1002D0002564252D3135530026435325643D3000D8
:1002E000494E534552542042415400252D3131533B
:1002F00025642E2530326456002D42415454455217
:100300005920434845434B002564252D3135530082
:100310002641543D256400005EBCE2613FDD83C29E
:100320009C7E20A3FD1F41009D23BE46DB65F88C0B
:1003300011AF32CA57E974554B4E4F574E00494ED4
:10034000534552545F444154415F535543434553D1
:100350005346554C5F00424152434F44455F434F23
:100360004E54494E55455F00524553455400455241
:10037000524F525F53455249414C5F4F555450556F
:1003800054004552524F525F484153485F494E50C6
:100390005554004552524F525F44415441424153DB
:1003A000455F484153485F494E50555400455252AD
:1003B0004F525F4E4F5F424152434F44455F494E5B
:1003C000505554004552524F525F4E4F5F4241527A
:1003D000434F44455F4442004552524F525F4D499E
:1003E0005353494E475F44415441004552524F5286
:1003F0005F44415441424153450054494D454F5596
:100400005400434F4E4E454354494F4E5F45525260
:100410004F52005355434345535346554C0000003B
:10042000000023002600290000000000250028000D
:100430002B00040404040404040402020202020265
:100440000303030303030102040810204080010298
:1004500004081020010204081020020000000024FB
:100460000027002A00000000080002010000030429
:1004700007000000000000000026435325643D25CE
:100480006426544925643D256426495425643D2548
:100490006426495625643D25642E25303264264362
:1004A0005425643D256426435625643D25642E2548
:1004B00030326426485425643D2564002D5243485B
:1004C0004720002D43485247200025642E25303216
:1004D000645620202530326425632025642E253083
:1004E000326456002564252D3753253032643A2571
:1004F0003032643A253032640026494425640000D5
:10050000F821952311241FBECFEFD8E0DEBFCDBF69
:1005100026E0A2E4B2E001C01D92A53EB207E1F7D9
:1005200012E0A0E0B1E0EEEFF6E502C005900D921A
:10053000A234B107D9F712E0C1E8D2E004C0219794
:10054000FE010E943D28C038D107C9F70E94FD1A5C
:100550000C94722B0C9400002F923F924F925F925A
:100560006F927F928F929F92AF92BF92CF92DF92C3
:10057000EF92FF920F931F93CF93DF93CDB7DEB728
:1005800067970FB6F894DEBF0FBECDBF1092800400
:1005900069ED71E08AE295E00E946B2B60E084E0F7
:1005A0000E94EE0EEAE2F5E001900020E9F72091CA
:1005B0001F051F922F9320E133E03F932F93CF012C
:1005C00001979F938F930E94ED232EE234E03A83AC
:1005D000298387E894E09E838D83AFEBB4E0BA8BE8
:1005E000A98BEFE2F1E0FC8BEB8B25EF34E0388B4D
:1005F0002F8789EF94E09E878D87ADEFB4E0BA87AF
:10060000A987ECE7F4E0F887EF830F900F900F9045
:100610000F900F900F902EE234E03C872B873C83A5
:100620002B8322242394312C1F8A1E8AAB81BC8108
:10063000EC918E2F90E08830910508F096C6FC0171
:10064000EC5CFF4F0C943D281E898D819E810E9499
:1006500025106B017C0160933604709337048093FE
:100660003804909339048091110518133CC089EF28
:1006700092E09F938F933F922F9288E093E09F9315
:100680008F93E5ECF4E0FF93EF930E94ED2320E0DD
:1006900030E048EC52E4C701B6010E940F270E94E7
:1006A0003629CB0164E670E00E9407289F938F9360
:1006B000C701B6010E9436297F936F9380EE92E0C6
:1006C0009F938F938BEE92E09F938F9385ED94E0B1
:1006D0009F938F930E94ED230E9411150FB6F894FB
:1006E000DEBF0FBECDBFEAE2F5E001900020E9F7E2
:1006F0002F892F933E893F9388ED92E09F938F93AC
:100700003197FF93EF930E94ED230F900F900F907E
:100710000F900F900F9020E030E040EC5FE360918D
:1007200036047091370480913804909139040E9406
:100730006C2987FD1AC616C61E898D819E810E946E
:1007400025106B017C01609336047093370480930D
:100750003804909339048091110518133CC082EC41
:1007600092E09F938F933F922F9280ED92E09F9320
:100770008F9385EC94E09F938F930E94ED2320E06C
:1007800030E048EC52E4C701B6010E940F270E94F6
:100790003629CB0164E670E00E9407289F938F936F
:1007A000C701B6010E9436297F936F9382EB92E0D6
:1007B0009F938F9384EB92E09F938F93E5EDF4E00A
:1007C000FF93EF930E94ED230E9411150FB6F8944A
:1007D000DEBF0FBECDBFEB81FC81E457FD4F8081B2
:1007E000882319F0812F0E946B15EAE2F5E0019051
:1007F0000020E9F79F899F93AE89AF938AEA92E040
:100800009F938F933197FF93EF930E94ED230F9067
:100810000F900F900F900F900F90A7C51E89812FFA
:100820000E9450188E890E942918823039F487E07E
:10083000EF81F88580838E890E943515A985BA8558
:100840008C91883039F489E0EF81F8858083812F9D
:100850000E94351561E076C4FE88AB81BC81149698
:100860008C91883008F0EEC0109236041092370454
:10087000109238041092390410923A0410923B04FA
:1008800010923C0410923D048D819E810E9425109F
:10089000609336047093370480933804909339043E
:1008A00061E0E989FA8980810E94CE108D819E8164
:1008B0000E94251060933A0470933B0480933C049B
:1008C00090933D0460E0A989BA898C910E94CE1072
:1008D00080903A0490903B04A0903C04B0903D047A
:1008E000A501940160913604709137048091380419
:1008F000909139040E9457282B013C01EB89FC8917
:100900002081318142815381C501B4010E94C428F4
:100910009B01AC01C301B2010E94C42820E030E079
:100920004AE754E40E940F2720E030E0A9010E942A
:1009300058280E9436298B01693E734014F007EE57
:1009400013E080911105F8122AC086E992E09F9386
:100950008F933F922F9282EA92E09F938F9325ECA0
:1009600034E03F932F930E94ED231F9284EF8F93E7
:100970001F930F938FE792E09F938F9389E892E004
:100980009F938F9385ED94E09F938F930E94ED2327
:100990000E9411150FB6F894DEBF0FBECDBF809038
:1009A000360490903704A0903804B0903904EAE2FD
:1009B000F5E001900020E9F79F012B5235407901C5
:1009C00020E030E048EC52E4C501B4010E940F275A
:1009D0000E943629CB0164E670E00E9407289F93AD
:1009E0008F93C501B4010E9436297F936F933F898D
:1009F0003F934E894F931F930F933F934F933F9392
:100A00004F9382E692E09F938F93C701865D9A4F42
:100A10009F938F930E94ED23AB81BC8114968C91A0
:100A200014978F5F14968C93EB85FC8566A977A944
:100A3000600F711F77AB66AB0FB6F894DEBF0FBEC9
:100A4000CDBF93C4AB85BC85D6968D919C91D7972D
:100A500097FD079623E0959587952A95E1F7EB8515
:100A6000FC8597AB86AB8F2D7EC4BE888B2D0E94F4
:100A700050188D819E810E9425106B017C0160932E
:100A8000360470933704809338049093390480912E
:100A90001105B8124BC0AF85B8898C911F928F9306
:100AA000ED85FE8580811F928F93A985BA858C91F3
:100AB0001F928F9387E492E09F938F933F922F92A0
:100AC0008DE492E09F938F93E5ECF4E0FF93EF9336
:100AD0000E94ED2320E030E048EC52E4C701B6016B
:100AE0000E940F270E943629CB0164E670E00E9425
:100AF00007289F938F93C701B6010E9436297F93E1
:100B00006F9387E392E09F938F9389E392E09F93A3
:100B10008F9385ED94E09F938F930E94ED230E9425
:100B200011150FB6F894DEBF0FBECDBFC0903604CE
:100B3000D0903704E0903804F0903904AD85BE853C
:100B4000AC90EAE2F5E001900020E9F78F010B524A
:100B5000154020E030E048EC52E4C701B6010E94A5
:100B60000F270E943629CB0164E670E00E94072817
:100B70009F938F93C701B6010E9436297F936F938D
:100B8000BF89BF93EE89EF93EB81FC81E351FF4F67
:100B900080811F928F93BF93FE89FF93AF85B889A1
:100BA0002C91BCE3AB9EC0011124820F911DE985FD
:100BB000FA85608140E15EE0649F9001659F300DA1
:100BC0001124820F931F9F938F93FF89FF932E8988
:100BD0002F93FF932F9382E192E09F938F93065D73
:100BE0001A4F1F930F930E94ED230FB6F894DEBFA8
:100BF0000FBECDBFAD85BE858C91813009F0B5C3E8
:100C00008B2DB1C31E89812F0E9450188E890E949E
:100C10002918823039F487E0EF81F88580838E8946
:100C20000E9435158D819E810E94251060933604A7
:100C300070933704809338049093390423E333E3AB
:100C400043E350E40E946C2987FD35C261E0A98925
:100C5000BA898C910E94CE108D819E810E942510B0
:100C6000609336047093370480933804909339046A
:100C700089819A8187599F4F0E9425109B01AC0161
:100C800060933A0470933B0480933C0490933D043A
:100C90006091360470913704809138049091390442
:100CA0000E945728EB89FC89208131814281538140
:100CB0000E94C42860933E0470933F0480934004D4
:100CC00090934104E981FA8186A197A1A0A5B1A5DD
:100CD000892B8A2B8B2B71F40E94CF14DC01CB0162
:100CE000885E9340A109B109E981FA8186A397A39F
:100CF000A0A7B1A70E94CF14A981BA8196962D9181
:100D00003C919797621B730B70935304609352044A
:100D1000072E000C880B990B0E94B02620913E04F0
:100D200030913F0440914004509141040E940F27AC
:100D300020E030E041E655E40E94C4289B01AC016C
:100D4000E981FA8164897589868997890E94582882
:100D5000A981BA8154966D937D938D939C935797F7
:100D60006AED71E081E993E00E94461AE981FA8117
:100D700064897589868997890E940A1966EF71E0EE
:100D800081E993E00E94461A60913E0470913F040D
:100D900080914004909141040E940A1967E072E03A
:100DA00081E993E00E94461A809152049091530485
:100DB0000E94D9196FE172E081E993E00E94461A1E
:100DC0006091520470915304072E000C880B990B0C
:100DD0000E94B02620913E0430913F04409140048F
:100DE000509141040E940F2720E030E041E655E495
:100DF0000E94C4280E940A190E94CF14A981BA81B6
:100E000096966D937D938D939C9399978091110500
:100E100018137EC0EF85F889F081FD8BAD85BE8506
:100E20000C91E985FA851081A981BA8154964D907B
:100E30005D906D907C905797C0903E04D0903F0499
:100E4000E0904004F0904104809036049090370484
:100E5000A0903804B090390420E030E048EC52E42F
:100E6000C501B4010E940F270E943629CB0164E618
:100E700070E00E9407289F938F93C501B4010E94E0
:100E800036297F936F9320E030E048EC52E4C701AD
:100E9000B6010E940F270E943629CB0164E670E05C
:100EA0000E9407289F938F93C701B6010E9436299D
:100EB0007F936F9386EF91E09F938F933F922F9252
:100EC0008AEF91E09F938F93E5ECF4E0FF93EF932B
:100ED0000E94ED23C301B2010E9436297F936F93D4
:100EE0001F923D893F931F920F931F921F938FED87
:100EF00091E09F938F9385ED94E09F938F930E9451
:100F0000ED230E9411150FB6F894DEBF0FBECDBFC2
:100F100040903E0450903F04609040047090410423
:100F20008090360490903704A0903804B090390433
:100F3000E981FA81FE96C080D180E280F380AD85A0
:100F4000BE85BC91BD8BEAE2F5E001900020E9F797
:100F50008F010B521540EF89EF93FE89FF9320E03C
:100F600030E048EC52E4C301B2010E940F270E9416
:100F70003629CB0164E670E00E9407289F938F9387
:100F8000C301B2010E9436297F936F932F892F935B
:100F90003E893F93A981BA8154966D917D918D913F
:100FA0009C9157970E9436297F936F93BF89BF9377
:100FB000EE89EF93EB81FC81EA50FF4F80811F9215
:100FC0008F93BF93FE89FF9320E030E048EC52E41A
:100FD000C501B4010E940F270E943629CB0164E6A7
:100FE00070E00E9407289F938F93C501B4010E946F
:100FF00036297F936F932F892F933E893F93EB81FF
:10100000FC81E351FF4F80811F928F932F933F9379
:1010100020E030E048EC52E4C701B6010E940F27FF
:101020000E943629CB0164E670E00E9407289F9356
:101030008F93C701B6010E9436297F936F934F8922
:101040004F938E898F93EB81FC81EE50FF4F80810F
:101050001F928F934F939E899F93AF85B8892C9150
:10106000ED89BCE3EB9FC0011124820F911DA9857E
:10107000BA856C9140E15EE0649F9001659F300D00
:101080001124820F931F9F938F93BF89BF93EE8983
:10109000EF93BF93EF9380E891E09F938F93065D6A
:1010A0001A4F1F930F930E94ED230FB6F894DEBFE3
:1010B0000FBECDBF4AC060E0A989BA898C910E9459
:1010C000CE10EB81FC81E057FD4F8081882321F019
:1010D000812F0E946B1539C0EAE2F5E001900020F3
:1010E000E9F7BF89BF932E892F9389EF94E09F93EF
:1010F0008F933197FF93EF930E94ED230F900F9002
:101100000F900F900F900F9020C01E89812F0E948A
:1011100050188E890E942918823039F487E0AF81F7
:10112000B8858C938E890E943515E985FA85808172
:10113000883039F489E0AF81B8858C93812F0E9483
:10114000351560E0812F0E94701681E08093800445
:101150000CC11E898D819E810E9425106B017C012E
:101160006093360470933704809338049093390465
:101170008091110518139FC0E981FA8184889588B0
:10118000A688B788AB85BC85D6960C91D697D7969E
:101190007C90EF81F8858081853009F44BC0A0F404
:1011A000882301F1833009F06AC08EE491E09F93B7
:1011B0008F933F922F928EE591E09F938F9325EC32
:1011C00034E03F932F9354C08730E9F1893009F020
:1011D00056C0A7E0B1E0BF93AF933F922F9227E1B3
:1011E00031E040C020E030E048EC52E4C701B601F5
:1011F0000E940F270E943629CB0164E670E00E940E
:1012000007289F938F93C701B6010E9436297F93C9
:101210006F9326E631E03F932F933F922F9280E722
:1012200091E09F938F9385EC94E09F938F930E941E
:10123000ED2320C0A7E3B1E0BF93AF933F922F927D
:1012400026E431E00FC02FE131E03F932F933F922E
:101250002F928FE291E09F938F93E5ECF4E0FF9360
:10126000EF9306C03F932F9385EC94E09F938F9369
:101270000E94ED230FB6F894DEBF0FBECDBFC501AF
:10128000B4010E9436297F936F931F9284EF8F934E
:101290007F920F9325EF30E03F932F9385ED94E0FD
:1012A0009F938F930E94ED230E9411150FB6F8941F
:1012B000DEBF0FBECDBF8090360490903704A09063
:1012C0003804B0903904EAE2F5E001900020E9F733
:1012D0009F012B5235407901AF81B8858C911F92C7
:1012E0008F93BF89BF93EE89EF9320E030E048EC05
:1012F00052E4C501B4010E940F270E943629CB0198
:1013000064E670E00E9407289F938F93C501B401A3
:101310000E9436297F936F93FF89FF932E892F9325
:10132000FF932F9388ED90E09F938F93C701865D85
:101330009A4F9F938F930E94ED230FB6F894DEBFD0
:101340000FBECDBF20E030E040EC5FE3609136049B
:101350007091370480913804909139040E94A92635
:1013600087FF03C0812F0E946B152E893F892F5F55
:101370003F4F3F8B2E8B3FEF231A330A8B819C818B
:1013800001969C838B83AB85BC851296BC87AB870B
:10139000ED81FE813496FE83ED8329813A812C5FB5
:1013A0003F4F3A83298389899A8901969A8B898B41
:1013B000AB89BC891496BC8BAB8BEF85F8893196D1
:1013C000F88BEF872D853E852F5F3F4F3E872D871A
:1013D00089859A8501969A878987AF81B885119604
:1013E000B887AF83EE89FF89349709F01FC96091F0
:1013F00080048091C30467960FB6F894DEBF0FBED9
:10140000CDBFDF91CF911F910F91FF90EF90DF90B3
:10141000CF90BF90AF909F908F907F906F905F9094
:101420004F903F902F900C94F0120F931F93CF93F7
:10143000DF938C01C0E0D0E0F801EC0FFD1F649158
:10144000662341F081E993E00E942614892B11F074
:101450002196F2CFCE01DF91CF911F910F91089588
:1014600085ED8093BC008091BC0084FDFCCF109280
:10147000BA02089540912003262F30E0240F311D39
:1014800021323105DCF42091BA022430C9F4FC0188
:1014900080E090E0861758F4309120032191DC0120
:1014A000A050BD4FA30FB11D2C930196F3CF809197
:1014B0002003680F6093200380E0089581E0089581
:1014C00082E0089508950895E091B2028091B102FA
:1014D000E81730F4F0E0E052FD4F808190E008958D
:1014E0008FEF9FEF08959091B2028091B10298170B
:1014F00050F4E92FF0E0E052FD4F208130E09F5F93
:101500009093B20202C02FEF3FEFC901089580917E
:10151000B10290E02091B202821B91090895CF920E
:10152000DF92EF92FF920F931F93CF93DF937C0193
:10153000CB018A012091B002222389F0EB016B01DB
:10154000C40ED51ECC15DD0569F06991D701ED916A
:10155000FC910190F081E02DC7010995F3CF642F34
:101560000E943A0AC801DF91CF911F910F91FF901D
:10157000EF90DF90CF900895CF93DF931F92CDB778
:10158000DEB769832091B0022223D1F02091B3020B
:10159000203240F021E030E0FC013383228380E000
:1015A00090E015C08091B402E82FF0E0E057FD4FC5
:1015B000998190838F5F8093B4028093B30205C0BA
:1015C00061E0CE0101960E943A0A81E090E00F901E
:1015D000DF91CF91089520918E0230918F022817CC
:1015E000390771F490918D0280918C02981741F027
:1015F000E0918D02F0E0E45BFD4F808190E0089582
:101600008FEF9FEF08951F93CF93DF93DC015C96DC
:101610008D919C915D97009739F421E030E013960D
:101620003C932E9312973BC05196ED91FC915297AB
:1016300050962C915097322F30951FB75E964C9153
:101640005E97742F727041FD6095F8944081772306
:1016500011F0422B01C043234083EC012197F1F7A5
:1016600048E0508160FF02C0522B01C053235083D9
:10167000EC012197F1F76695415099F78081772326
:1016800019F08323808302C0282B20831FBF5C9620
:101690008D919C915D970197F1F781E090E0DF914A
:1016A000CF911F91089520918E0230918F022817BB
:1016B000390771F480918C0220918D0290E0805C5A
:1016C0009F4F821B910960E470E00E9407280895F3
:1016D00080E090E00895CF93DF930E94150AEC011B
:1016E00067ED71E081E993E00E94461A8C0F9D1F1F
:1016F000DF91CF910895CF93DF938B30910530F533
:10170000FC01E45CFF4F0C943D2883E194E042C06F
:1017100082E094E03FC08AEF93E03CC08BEE93E020
:1017200039C088ED93E036C084EC93E033C08DEA95
:1017300093E030C083E993E02DC082E893E02AC0B3
:101740008EE693E027C088E693E024C0EC01C456FF
:10175000D109C436D10540F4FE01E654F94F81E0C9
:10176000808386E593E00DC0EC01C85CD109C436E6
:10177000D10570F4FE01E254F94F81E080838EE3DD
:1017800093E00E94150ACE01DF91CF910C94D919F4
:1017900087E393E0DF91CF910C946B0B0F931F9332
:1017A0000E94CF1460936D0370936E0380936F0358
:1017B0009093700385E693E00E94251197FF1FC068
:1017C0000E94CF1400916D0310916E0320916F035E
:1017D00030917003DC01CB01801B910BA20BB30B8A
:1017E0000091690310916A0320916B0330916C039F
:1017F00080179107A207B307E8F28FEF9FEF1F91C1
:101800000F910895CF93DF93EC01198218821B8208
:101810001A821D821C8260E070E00E945B132881A6
:10182000398181110FC02115310519F0C9010E94BC
:101830000E2A198218821D821C821B821A82DF9155
:10184000CF9108951D821C8269ED71E0C901DF917D
:10185000CF910C946B2B1F920F920FB60F92112405
:101860002F933F934F935F936F937F938F939F93A8
:10187000AF93BF93EF93FF938091B900887F803639
:1018800009F49CC068F5883209F45BC090F480319B
:1018900009F454C038F4882309F4F6C0883009F4F8
:1018A0004DC0F6C0883109F44CC0803209F45DC0E7
:1018B000EFC0803409F468C048F4803309F455C09F
:1018C000883309F0E5C08093B902D8C0803509F4A7
:1018D0004FC0883509F45DC0883409F0D9C0D6C03E
:1018E000883909F4C7C0A8F4883709F467C038F408
:1018F000883609F463C0803709F460C0C9C08838ED
:1019000009F4B8C0803909F45FC0803809F0C0C05C
:101910005BC0803B09F486C038F4803A09F466C0A5
:10192000883A09F47FC0B4C0803C09F4A7C0883C61
:1019300009F4A4C0883B09F48AC0AAC08091DF02E0
:1019400010C09091DE028091DD02981770F5E09151
:10195000DE0281E08E0F8093DE02F0E0E354FD4F63
:1019600080818093BB0085EC86C08093B9028EC0D5
:10197000E091DE0281E08E0F8093DE028091BB0059
:10198000F0E0E354FD4F80839091DE028091DD0210
:101990006EC0E091DE0281E08E0F8093DE028091C6
:1019A000BB00F0E0E354FD4F80838091BC028111C5
:1019B0006DC081E08093BB0284EA61C083E08093C4
:1019C000BA0210924203CFCF80914203803208F0D6
:1019D00051C0E091420381E08E0F809342038091D9
:1019E000BB00F0E0EE5DFC4F8083BDCF85EC8093C3
:1019F000BC001092BA0280914203803230F4E09130
:101A00004203F0E0EE5DFC4F10826091420370E013
:101A1000E091B702F091B80282E293E0099510924A
:101A2000420336C084E08093BA02109221031092E0
:101A30002003E091B502F091B60209958091200350
:101A4000811105C081E08093200310920003E09192
:101A5000210381E08E0F80932103F0E0E050FD4FE1
:101A600080818093BB00909121038091200398177F
:101A700008F479CF85E88093BC000AC085EC809398
:101A8000BC001092BA0204C01092B9020E94300A3F
:101A9000FF91EF91BF91AF919F918F917F916F9146
:101AA0005F914F913F912F910F900FBE0F901F901C
:101AB00018950895DC0180E0615098F02D91982FE1
:101AC0009227E92FEF70F0E0E95EFC4F24919295A8
:101AD0009F70E92FF0E0E95DFC4FE491822F8E27A3
:101AE000EBCF0895FC0190810180F281E02DF89404
:101AF0008181892B81832281892F809528232283CC
:101B0000A7E0B0E01197F1F7218182238183A3E25E
:101B1000B0E01197F1F780817894EFECF0E0319725
:101B2000F1F7982381E009F480E00895FC019081A9
:101B30000180F281E02D892F809560FF12C0F8941A
:101B40002281822382838181892B8183A3E2B0E079
:101B50001197F1F78281982B9283789487ED90E02A
:101B600011C0F8942281822382838181892B818311
:101B7000AFEFB0E01197F1F78281982B92837894C0
:101B80008FE090E00197F1F70895DF92EF92FF92D6
:101B90000F931F93CF93DF93EC01D62EE42E08E032
:101BA00010E0FF24F39461E08D2D8F2109F460E0B3
:101BB000CE010E94960DFF0C01501109A1F7E11012
:101BC00010C0F894E981FA819181888180958923F8
:101BD0008183E981FA81928188818095892382833A
:101BE0007894DF91CF911F910F91FF90EF90DF904C
:101BF0000895EF92FF920F931F93CF93DF938C0181
:101C00007B0140E065E50E94C50DE70188E0E80E34
:101C1000F11C699140E0C8010E94C50DCE15DF0599
:101C2000C1F7DF91CF911F910F91FF90EF90089531
:101C3000DC012C911196ED91FC911297F894818121
:101C4000922F90958923818378948DE743E050E02B
:101C5000815021F1DA011197F1F730813223C1F37C
:101C6000F8948281892382838181822B8183789475
:101C7000ABE7B7E01197F1F7F8948181982391834E
:101C800083E191E00197F1F78081282381E009F059
:101C900080E07894E3E6F6E03197F1F708956F92EB
:101CA0007F928F929F92AF92BF92CF92DF92EF92EC
:101CB000FF920F931F93CF93DF938C01EB018091E1
:101CC0005703909158030E94180E882309F447C0C7
:101CD000B80180915703909158030E94F90D40E09C
:101CE0006EEB80915703909158030E94C50D8E01B1
:101CF0006E0189E0C80ED11C7E01A0905703B09000
:101D0000580388E0882E912C712C66246394C501B9
:101D10000E94720D81117628660CE1E08E1A9108FE
:101D2000B1F7F70171927F01CE16DF0631F780918E
:101D30005703909158030E94180E813081F4F801E6
:101D400081918F01811104C0EC15FD05C1F707C019
:101D500068E0CE010E945A0D91E02885281390E09A
:101D6000892FDF91CF911F910F91FF90EF90DF901E
:101D7000CF90BF90AF909F908F907F906F9008957D
:101D8000CF93DF93CDB7DEB729970FB6F894DEBFB8
:101D90000FBECDBFBE016F5F7F4F0E944F0E8823E5
:101DA00089F08D818F3361F020F48F3159F489E00F
:101DB0000CC08F3519F08F3739F004C08BE005C0A7
:101DC0008AE003C080E001C08CE029960FB6F89449
:101DD000DEBF0FBECDBFDF91CF9108954F925F92CE
:101DE0006F927F928F929F92AF92BF92CF92DF922B
:101DF000EF92FF920F931F93CF93DF93CDB7DEB790
:101E000029970FB6F894DEBF0FBECDBF90E08C01CE
:101E10000A5E1A4FF8012081213140F435813323C5
:101E200029F0333619F0662309F4F5C0F801108261
:101E3000F3E0880F991FFA95E1F79C0120503F4F7E
:101E40007901F9018081803141F0C9010E94C00E01
:101E5000D82E882309F468C002C0ECE0DE2E809101
:101E60005703909158030E94180EB70180915703B1
:101E7000909158030E94F90D40914F0364E48091C2
:101E80005703909158030E94C50D809153038823F6
:101E900009F44AC0E7EFED0DE33040F4F0E0EE0F57
:101EA000FF1FE958FE4F8081918102C08EEE92E0C3
:101EB0004C01990FAA08BB08809154038823F1F0C4
:101EC00080914F0381111AC00E94CF142B013C0155
:101ED00080915703909158030E94720D813021F137
:101EE0000E94CF14DC01CB0184199509A609B7091A
:101EF00088159905AA05BB0558F316C080915003B3
:101F0000882329F060E0809151030E94F012C501FE
:101F1000B4010E94951480915003882329F061E058
:101F2000809151030E94F012BE016F5F7F4FC70185
:101F30000E944F0E882379F12A8130E0C901982F41
:101F40008827990F990F990F6981F8E06F9FB00169
:101F500011249C01262B372BF70180818031F1F46D
:101F600068856623D9F070E08F81AB01481B510969
:101F7000CA019695982F8827979587950E940728DC
:101F800060527109207F53E0220F331F5A95E1F709
:101F9000620F731F04C060E874EE01C0B9016138BC
:101FA00054EE7507FCF0072E000C880B990B0E946D
:101FB000B02620E030E040E05CE30E940F276B0198
:101FC0007C0120E030E046EC52E40E946C291816B7
:101FD0004CF020E030E0A901C701B6010E94A9261B
:101FE00087FF12C0F8016581633641F070E080E040
:101FF00090E00E94AE266B017C0106C0C12CD12C62
:1020000086ECE82E82E4F82EC701B6010E9436293C
:10201000F801658303C02F5FF801208329960FB66E
:10202000F894DEBF0FBECDBFDF91CF911F910F910E
:10203000FF90EF90DF90CF90BF90AF909F908F90E8
:102040007F906F905F904F9008958F929F92AF9284
:10205000BF92CF92DF92EF92FF920F931F93CF9395
:10206000DF9300D000D0CDB7DEB720918304298361
:10207000209184042A83209185042B832091860457
:102080002C837C018E010F5F1F4F6E0185E0C80E0F
:10209000D11CF70161917F01F80181918F010E94AC
:1020A000F0120C151D05A9F71AE0C12CD12C7601F0
:1020B0000EE48091B7048E3008F08E5087708064F3
:1020C00080937C0080917A00806480937A00809174
:1020D0007A0086FDFCCF609178008091790070E0F5
:1020E000782B072E000C880B990B0E94B0264B0111
:1020F0005C0100937C0062E070E080E090E00E9470
:10210000951480917A00806480937A0080917A009F
:1021100086FDFCCF209178006091790070E0762FE9
:102120006627CB01770FAA0BBB0BBC01CD01622B3D
:102130000E94B0269B01AC0163E27BED89E894E448
:102140000E94C42820E030EC4FE754E40E94C428E9
:10215000A50194010E940F279B01AC01C701B601A4
:102160000E9458286B017C01115009F0A2CF20E099
:1021700030E040E251E40E94C4280F900F900F908D
:102180000F90DF91CF911F910F91FF90EF90DF9013
:10219000CF90BF90AF909F908F900895EF92FF9255
:1021A0000F931F93CF93DF93382F2091C40466239E
:1021B00079F041E050E060E070E004C0440F551F4A
:1021C000661F771F8A95D2F7422B4093C4040FC035
:1021D00081E090E0A0E0B0E004C0880F991FAA1F42
:1021E000BB1F3A95D2F7809582238093C40460E0A8
:1021F0008091B8040E94F0120091C404F090B904D8
:10220000E090BA04C7E0D0E010E0B8010C2E02C0A4
:10221000759567950A94E2F761708E2D0E94F01211
:1022200061E08F2D0E94F01260E08F2D0E94F0126D
:10223000219758F761E08091B804DF91CF911F9109
:102240000F91FF90EF900C94F01220918E0230913C
:102250008F0228173907B9F490918D0280918C0272
:10226000981789F0E0918D02F0E0E45BFD4F8081EA
:1022700020918D0230E02F5F3F4F2F733327209343
:102280008D0290E008958FEF9FEF08950895FC016F
:10229000538D448D252F30E0842F90E0821B930BCB
:1022A000541710F0CF96089501970895FC01918D71
:1022B000828D981761F0828DDF01A80FB11D5D96A8
:1022C0008C91928D9F5F9F73928F90E008958FEF16
:1022D0009FEF0895FC01918D828D981731F0828DCA
:1022E000E80FF11D858D90E008958FEF9FEF089521
:1022F000FC01918D228D892F90E0805C9F4F821B85
:1023000091098F739927089580E090E0892B29F037
:102310000E943C1A81110C94000008953FB7F89474
:102320008091D4069091D506A091D606B091D7069B
:1023300026B5A89B05C02F3F19F00196A11DB11D20
:102340003FBFBA2FA92F982F8827820F911DA11D5B
:10235000B11DBC01CD0142E0660F771F881F991F98
:102360004A95D1F708951F920F920FB60F9211243C
:102370002F933F934F935F936F937F938F939F938D
:10238000AF93BF93EF93FF93E0918E02F0918F0292
:10239000309709F451C0968DA685B785858591FF44
:1023A00004C09C91892329F447C09C91892309F09A
:1023B00043C0A389B4899C918589809589238C9396
:1023C000868997890197F1F7608D718DA685B7850C
:1023D000558538E020E0CB010197F1F7822F90E09E
:1023E00095958795282F4C91452309F02068315009
:1023F00091F7868D81FD209580918C0290E0019669
:102400008F73992730918D02381749F0A0918C0273
:10241000B0E0A45BBD4F2C9380938C0203C0868DEB
:102420008160868F828D938D0197F1F7A389B4899E
:102430009C918589892B8C93FF91EF91BF91AF91EE
:102440009F918F917F916F915F914F913F912F91CC
:102450000F900FBE0F901F901895CF93FC01C48171
:1024600021E02093B002C093DF061092B4021092D4
:10247000B3028485682B83E493E00E94BC0A9091A8
:10248000B302913208F045C08091BA028111FCCFAD
:1024900082E08093BA0281E08093BC028FEF809348
:1024A000B9021092DE029093DD02A0E9B2E0EDEBFA
:1024B000F2E080E0981721F02D9121938F5FFACF01
:1024C0001092DF028091DF02CC0FC82BC093DF0295
:1024D0008091BB02813061F41092BB028091DF02D7
:1024E0008093BB008091BC0083FDF8CF85EC01C0D8
:1024F00085EE8093BC008091BA028230E1F3809136
:10250000B9028F3F31F08091B902803211F0809191
:10251000B9021092B4021092B3021092B002CF919D
:1025200008950F931F93CF938C01C62F0E942D12F5
:102530006C2F6460C8010E942D126C2F6B7FC80144
:102540000E942D1283EC90E00197F1F7CF911F913B
:102550000F9108950F931F93CF93DF938C01C62F94
:10256000D42F607F642B0E94911280E1C89FB0013C
:1025700011246D2BC801DF91CF911F910F910C9405
:10258000911241E00E94AA1281E090E00895833008
:1025900081F028F4813099F08230A1F008958730DD
:1025A000A9F08830B9F08430D1F4809180008F7D1B
:1025B00003C0809180008F7780938000089584B558
:1025C0008F7702C084B58F7D84BD08958091B0005F
:1025D0008F7703C08091B0008F7D8093B000089505
:1025E0001F93CF93DF93282F30E0F901EB59FB4F76
:1025F0008491F901EA5BFB4FD491F901EE5CFB4F4A
:10260000C491CC23C1F0162F81110E94C712EC2F68
:10261000F0E0EE0FFF1FE85DFB4FA591B4919FB76F
:10262000F894111104C08C91D095D82302C0EC917C
:10263000DE2BDC939FBFDF91CF911F910895CF9345
:10264000DF9390E0FC01EA5BFB4F2491FC01EE5C20
:10265000FB4F8491882361F190E0880F991FFC0162
:10266000E55AFB4FC591D491FC01E85DFB4FA59164
:10267000B491611109C09FB7F89488812095822395
:102680008883EC912E230BC0623061F49FB7F894DD
:102690008881322F309583238883EC912E2B2C93C5
:1026A0009FBF06C08FB7F894E8812E2B28838FBF79
:1026B000DF91CF9108950F931F93CF93DF93EC0198
:1026C00088819981009729F02A813B812617370755
:1026D00088F48B016F5F7F4F0E94972A009761F00B
:1026E000998388831B830A832C813D81232B11F4DA
:1026F000FC01108281E001C080E0DF91CF911F9149
:102700000F9108951F920F920FB60F9211242F93DD
:102710003F934F935F936F937F938F939F93AF9369
:10272000BF93EF93FF938091DB069091DC06A0911D
:10273000DD06B091DE06892B8A2B8B2B59F1909107
:10274000DA06E091D806F091D90680818927808346
:102750008091DB069091DC06A091DD06B091DE064B
:10276000181619061A061B060CF03DC08091DB06F0
:102770009091DC06A091DD06B091DE060197A109DB
:10278000B1098093DB069093DC06A093DD06B0933D
:10279000DE0629C080912801EAE5F4E0E4919FEF8C
:1027A00090932801E130B9F098F0E230C9F49091AB
:1027B00070009D7F9093700091E09093B000909195
:1027C000B100987F94609093B1001092B30008C05C
:1027D00010926E0005C090916F009D7F90936F00E6
:1027E00060E00E94F012FF91EF91BF91AF919F9135
:1027F0008F917F916F915F914F913F912F910F90AA
:102800000FBE0F901F901895FC01848DDF01A80F5B
:10281000B11DA35ABF4F2C91848D90E001968F7308
:102820009927848FA689B7892C93A089B1898C9127
:10283000837080648C93938D848D981306C0028876
:10284000F389E02D80818F7D80830895EF92FF9240
:102850000F931F93CF93DF93EC0181E0888F9B8DC3
:102860008C8D981305C0E889F989808185FD26C083
:10287000F62E0B8D10E00F5F1F4F0F731127E02E08
:102880008C8DE8120CC00FB607FCFACFE889F989E5
:10289000808185FFF5CFCE010E940414F1CF8B8D8E
:1028A000FE01E80FF11DE35AFF4FF0829FB7F89445
:1028B0000B8FEA89FB89808180620AC09FB7F894F8
:1028C000EE89FF896083E889F9898081837080645B
:1028D00080839FBF81E090E0DF91CF911F910F91A6
:1028E000FF90EF900895CF93DF93EC01888D8823BC
:1028F000C9F0EA89FB89808185FD05C0A889B9896D
:102900008C9186FD0FC00FB607FCF5CF808185FF47
:10291000F2CFA889B9898C9185FFEDCFCE010E94B5
:102920000414E7CFDF91CF9108958F929F92AF92D9
:10293000BF92CF92DF92EF92FF926B017C010E94D7
:102940008E114B015C01C114D104E104F104F1F0DA
:102950000E948E11DC01CB0188199909AA09BB09D3
:10296000883E9340A105B10570F321E0C21AD10859
:10297000E108F10888EE880E83E0981EA11CB11CC6
:10298000C114D104E104F10419F7DDCFFF90EF90F9
:10299000DF90CF90BF90AF909F908F9008952FB70A
:1029A000F8946091D0067091D1068091D2069091F2
:1029B000D3062FBF0895CF93DF93CDB7DEB7289707
:1029C0000FB6F894DEBF0FBECDBF98E0EFEBF1E09D
:1029D000DE01119601900D929A95E1F790918C038A
:1029E000981710F48FEF890FFE013196E80FF11D53
:1029F000E80FF11D6081606840E084E893E028966C
:102A00000FB6F894DEBF0FBECDBFDF91CF910C940F
:102A1000AA12E82FF0E0E854FB4F60E083810C94A9
:102A2000CE1080E00E94DB1465EC74E084E893E053
:102A30000E94461A81E00E94DB1465ED74E084E890
:102A400093E00C94461A40E061E084E893E00E9431
:102A5000AA128BE39FE10197F1F780918D03882300
:102A600019F080E00C94DB1408950F931F93CF931B
:102A7000DF93C82FD0E08E01025D1B4FF8019081DB
:102A8000953029F0963059F0923059F408C060E042
:102A9000FE01E854FB4F87810E94CE1002C00E94C5
:102AA00009150E94CF14FE01EE0FFF1FEE0FFF1F4E
:102AB000EB51FB4F6083718382839383CB51DB4F58
:102AC000188A1C8A188E87E0F8018083DF91CF91E5
:102AD0001F910F910895AF92BF92CF92DF92FF9214
:102AE0000F931F93CF93DF93F82EC82FD0E08E0162
:102AF000025D1B4FD801EC918E2F90E06E01CC0C43
:102B0000DD1CCC0CDD1CFE01E65DFA4F5F01883058
:102B1000910508F0C6C0FC01E95BFF4F0C943D280D
:102B200081E021C061E08F2D0E94EE0EFE01EA5E81
:102B3000FA4F8581828782E0F8018083CE01880F79
:102B4000991F880F991F89579B4F0E942510F601E6
:102B5000E459FB4F6083718382839383A2C08F2DDE
:102B60000E94091583E0D8018C939BC0FE01EE0FF3
:102B7000FF1FEC59FB4F808191810197843F914069
:102B800010F083E039C0109236041092370410928E
:102B900038041092390410923A0410923B041092B7
:102BA0003C0410923D0410923E0410923F04109297
:102BB00040041092410484E031C061E08F2D0E94F6
:102BC000EE0EFE01EA5EFA4F8581828785E0CBCF6B
:102BD000FE01EE0FFF1FEE0FFF1FEE5BFB4F20E02D
:102BE00030E04AE754E460817181828193810E94E0
:102BF000A92687FF09C085E0F801E25BFF4F8083CB
:102C00008F2D0E9435154DC061E08F2D0E94EE0E74
:102C1000FE01EA5EFA4F8581828786E0F8018083B3
:102C200040C08F2D0E940915F801E25BFF4F108212
:102C300087E099CF1092360410923704109238042E
:102C40001092390410923A0410923B0410923C0402
:102C500010923D0410923E0410923F0410924004E2
:102C600010924104FE01EE0FFF1FEE0FFF1FEE5BFF
:102C7000FB4F1082118212821382FE01EE0FFF1FA2
:102C8000EC59FB4F11821082F601E459FB4F108280
:102C9000118212821382F8011082F501E057FE4F73
:102CA0001082D80114961C920E94CF14F601EB51A9
:102CB000FB4F6083718382839383CB51DB4F188AF0
:102CC0001C8A188EF501EC56FE4F1082DF91CF91D1
:102CD0001F910F91FF90DF90CF90BF90AF9008951C
:102CE0002F923F924F925F926F927F928F929F921C
:102CF000AF92BF92CF92DF92EF92FF920F931F930A
:102D0000CF93DF9300D000D0CDB7DEB7382E262E7C
:102D1000282F30E03C832B83F901E854FB4F61E01E
:102D200083810E94CE10AB80BC803FEFA31AB30A10
:102D3000C501880F991F880F991F8D579B4F0E94BF
:102D40002510609336047093370480933804909371
:102D500039048B819C81880F991F880F991F895591
:102D60009B4F0E9425108B809C80880C991C880C9E
:102D7000991CF401E953FE4F208131814281538136
:102D80000E946C2987FD32C00B811C81025D1B4FA4
:102D9000F8018481883040F4832D0E940915F801E0
:102DA00084818F5F848322C0EB81FC81E254F94FE0
:102DB0008081882321F0832D0E946B1517C0EAE2E1
:102DC000F5E001900020E9F71F923F9229EF34E0EF
:102DD0003F932F93CF0101979F938F930E94ED23F1
:102DE0000F900F900F900F900F900F908091110502
:102DF0000B811C810A5E1A4F2B813C812B513B4F6A
:102E00003C832B83381277C0F801F581F983F401F4
:102E1000E459FB4FC080D180E280F38040903604BB
:102E2000509037046090380470903904F90140895B
:102E30003489208D211003C08CEB94E002C083EC18
:102E400094E01F924F931F923F931F922F939F9353
:102E50008F93BF92AF9284EE94E09F938F9385EC13
:102E600094E09F938F930E94ED2320E030E048ECA4
:102E700052E4C301B2010E940F270E94362994E652
:102E8000A92EB12CCB01B5010E9407289F938F93E7
:102E9000C301B2010E9436297F936F931F928FED79
:102EA0008F931F92F981FF9320E030E048EC52E4C9
:102EB000C701B6010E940F270E943629CB01B50138
:102EC0000E9407289F938F93C701B6010E9436295D
:102ED0007F936F938AEC94E09F938F9385ED94E0BA
:102EE0009F938F930E94ED230E9411150FB6F894C3
:102EF000DEBF0FBECDBF40903604509037046090C7
:102F0000380470903904EB81FC81F489F983F40171
:102F1000E459FB4F80809180A280B380F801F68550
:102F2000FA8320E030E048EC52E4C301B2010E9491
:102F30000F270E94362984E6E82EF12CCB01B70139
:102F40000E940728D82EC92EC301B2010E9436293B
:102F5000762E672EF801558020E030E048EC52E4F0
:102F6000C501B4010E940F270E943629CB01B70189
:102F70000E940728F82EE92EC501B4010E943629C7
:102F8000F8014285EB81FC8180895981FCE35F9FD8
:102F900090011124280F311DEB81FC81508DE0E15F
:102FA000FEE05E9FC0015F9F900D1124280F391F26
:102FB000211002C056E001C052E0EAE2F5E00190C3
:102FC0000020E9F71F928A818F931F923F92CF9240
:102FD000DF926F927F921F923F921F925F921F9299
:102FE0003F92EF92FF927F936F931F923F921F92B7
:102FF0004F931F923F923F932F931F923F921F92A6
:103000005F931F923F9229E734E03F932F93CF01C4
:1030100001979F938F930E94ED230FB6F894DEBF24
:103020000FBECDBF0F900F900F900F90DF91CF91FB
:103030001F910F91FF90EF90DF90CF90BF90AF90D6
:103040009F908F907F906F905F904F903F902F90C8
:103050000895CF93C82F60E00E94EE0EEC2FF0E0B1
:10306000EA5EFA4F85819685981718F4833609F041
:103070008687282F30E090911F05291B31092830C1
:1030800031054CF0833639F0882341F02B3031057F
:1030900024F481E003C080E001C082E0CF91089574
:1030A0004F925F926F927F928F929F92AF92BF9258
:1030B000CF92DF92EF92FF920F931F93CF93DF9304
:1030C000C82F0E94CF14D0E08E010B511B4FCC0FA4
:1030D000DD1FCC0FDD1FCB51DB4FC880D980EA80CC
:1030E000FB806C197D098E099F0930E8C32E3EEEE6
:1030F000D32E36E3E32EF12CA70196010E941B2864
:10310000F801208F0E94CF1488809980AA80BB800C
:10311000681979098A099B09A70196010E941B2851
:1031200040E6842E4AEE942EA12CB12CA5019401E8
:103130000E941B28F801248B0E94CF1448805980DC
:103140006A807B806419750986099709A701960131
:103150000E941B28A50194010E941B2828EE33E041
:1031600040E050E00E941B28F801208BDF91CF91B6
:103170001F910F91FF90EF90DF90CF90BF90AF9095
:103180009F908F907F906F905F904F9008958F9257
:103190009F92AF92BF920F931F93CF93DF93CDB7C0
:1031A000DEB7A1970FB6F894DEBF0FBECDBF19A250
:1031B000423008F44AE08E010F5D1F4F842E912C9F
:1031C000A12CB12CA50194010E941B28E62FB90166
:1031D000CA0101501109EA3014F4E05D01C0E95C54
:1031E000D801EC93232B242B252B61F7B80181E91F
:1031F00093E00E94461AA1960FB6F894DEBF0FBE68
:10320000CDBFDF91CF911F910F91BF90AF909F9055
:103210008F9008954F925F926F927F928F929F92BC
:10322000AF92BF92CF92DF92EF92FF926B017C013F
:103230009B01AC010E947129882319F065E372E0BB
:103240001AC046015701E894B7F82FEF3FEF4FE758
:103250005FE7C501B4010E947129811112C02FEFEF
:103260003FEF4FE75FE7C501B4010E94A92618169A
:1032700044F469E372E081E993E00E94461A7C011C
:1032800083C02FEF3FEF4FE75FE4C701B6010E9415
:103290006C2918161CF46DE372E0EDCF2FEF3FEFB1
:1032A0004FE75FECC701B6010E94A92687FDF3CF67
:1032B00020E030E0A901C701B6010E94A92687FFDE
:1032C0000BC06DE281E993E00E9426145C01F7FADD
:1032D000F094F7F8F09402C0A12CB12C2AE037ED5D
:1032E00043EA5BE3C701B6010E9458282B013C0169
:1032F0000E943D296B017C010E94AE269B01AC011E
:10330000C301B2010E9457282B013C014AE0C701CA
:10331000B6010E94C7187C01EA0CFB1C6EE281E931
:1033200093E00E942614E80EF91E20E030E040E20F
:1033300051E4C301B2010E940F272B013C010E94FE
:103340003D294B01A12CB12C4AE0C501B4010E94DA
:10335000C718E80EF91EC501B4010E94AE269B01F4
:10336000AC01C301B2010E94572820E030E040E2E6
:1033700051E40E940F270E943D2980E090E04AE03E
:103380000E94C718E80EF91E67ED71E081E993E02D
:103390000E94461A8E0D9F1DFF90EF90DF90CF90F8
:1033A000BF90AF909F908F907F906F905F904F9065
:1033B0000895CF92DF92EF92FF92CF93DF936C014B
:1033C000990FEE08FF08F7FE13C06DE281E993E064
:1033D0000E942614EC0166277727CB016C197D0922
:1033E0008E099F094AE00E94C718C80FD91F06C05E
:1033F0004AE0C701B6010E94C718EC0167ED71E011
:1034000081E993E00E94461A8C0F9D1FDF91CF91B6
:10341000FF90EF90DF90CF900895CF92DF92EF92E0
:10342000FF920F931F93CF93DF936C017A018B016F
:10343000C0E0D0E0CE15DF0581F0D8016D918D019F
:10344000D601ED91FC910190F081E02DC601099526
:10345000892B11F02196EECF7E01C701DF91CF912C
:103460001F910F91FF90EF90DF90CF90089580E033
:1034700090E008950E945D2B81E993E00E9478110D
:1034800021E0892B09F420E0822F08956115710550
:1034900079F0FB0101900020E9F73197AF01461B5D
:1034A000570BDC01ED91FC910280F381E02D099432
:1034B00080E090E008951F920F920FB60F921124B2
:1034C0002F933F934F935F936F937F938F939F932C
:1034D000AF93BF93EF93FF9381E993E00E940414AD
:1034E000FF91EF91BF91AF919F918F917F916F91DC
:1034F0005F914F913F912F910F900FBE0F901F90B2
:1035000018951F920F920FB60F9211242F938F933D
:103510009F93EF93FF93E091A103F091A203808129
:10352000E091A703F091A80382FD12C090818091E1
:10353000AA038F5F8F732091AB03821751F0E09144
:10354000AA03F0E0EF56FC4F958F8093AA0301C0C9
:103550008081FF91EF919F918F912F910F900FBEDE
:103560000F901F9018951F920F920FB60F92112473
:103570002F933F938F939F93AF93BF938091D006E8
:103580009091D106A091D206B091D3063091E00679
:1035900023E0230F2D3720F40196A11DB11D05C096
:1035A00026E8230F0296A11DB11D2093E00680930B
:1035B000D0069093D106A093D206B093D306809103
:1035C000D4069091D506A091D606B091D706019663
:1035D000A11DB11D8093D4069093D506A093D60665
:1035E000B093D706BF91AF919F918F913F912F914B
:1035F0000F900FBE0F901F901895CF93DF93CDB70C
:10360000DEB766970FB6F894DEBF0FBECDBF7894D5
:1036100084B5826084BD84B5816084BD85B58260D7
:1036200085BD85B5816085BD80916E008160809388
:103630006E001092810080918100826080938100F1
:103640008091810081608093810080918000816001
:10365000809380008091B10084608093B10080915C
:10366000B00081608093B00080917A008460809384
:103670007A0080917A00826080937A0080917A004B
:10368000816080937A0080917A00806880937A00CC
:103690001092C1001092B2021092B1021092B402C4
:1036A0001092B3021092BA0281E08093BC02109291
:1036B000BB0261E082E10E94F01261E083E10E94BE
:1036C000F0128091B9008E7F8093B9008091B9008B
:1036D0008D7F8093B90088E48093B80085E480935F
:1036E000BC0082E69AE09093B6028093B50283E62E
:1036F0009AE09093B8028093B70210928903809168
:103700008F03823018F098E09093890380938C03A4
:1037100062E370E080E090E00E9495146091900375
:1037200084E893E00E942D1268EE73E080E090E060
:103730000E94951460E384E893E00E9491120BE4E8
:1037400016E4C8010197F1F760E384E893E00E9472
:103750009112C8010197F1F760E384E893E00E94B9
:10376000911283E592E00197F1F760E284E893E03B
:103770000E94911260918903606240E084E893E0C6
:103780000E94AA1284E080938A0340E06CE084E8FF
:1037900093E00E94AA120E94231582E080938B037B
:1037A00040E066E084E893E00E94AA1240E062E014
:1037B00084E893E00E94AA128BE39FE10197F1F75E
:1037C0000E94231588E08093900360E084E893E0F2
:1037D0000E942D1285EB90E09F938F9386EC90E0F2
:1037E0009F938F9385EC94E09F938F930E94ED239A
:1037F0008EE990E09F938F938FEA90E09F938F9351
:1038000085ED94E09F938F930E94ED230E94111504
:1038100061E0809183040E941F1361E08091840421
:103820000E941F1361E0809185040E941F1361E0D4
:10383000809186040E941F1360E0809183040E949F
:10384000F01260E0809184040E94F01260E08091A8
:1038500085040E94F01260E0809186040E94F012BC
:1038600060E08091B7040E941F1361E08091B8046A
:103870000E941F1361E08091B9040E941F1361E050
:103880008091BA040E941F1360E08091B8040E94E6
:10389000F01261E08091C3040E941F1360E08091E8
:1038A000C3040E94F012BFEBEB2EB4E0FB2E0FB668
:1038B000F894DEBF0FBECDBF10E0812F0E94091526
:1038C00060E0F70181917F010E94CE101F5F1430EC
:1038D000A1F760E0809129050E941F13E091570332
:1038E000F0915803138615861486DF011B963396D4
:1038F0001E92AE17BF07E1F71092550310925603C0
:10390000BB24B394AA24A3940091570310915803A5
:10391000F801858581116FC0C8010E94180E8823A7
:1039200009F469C040E060EFC8010E94C50DEE24B3
:10393000E394C12C912CFF24F394C8010E94720DD2
:10394000D82EC8010E94720DF1E0DF1203C0813051
:10395000C1F437C02C2D30E0D8121DC0F80183858A
:10396000F81630F4E20FF31F83818E2151F402C068
:103970008F1539F0D12CF8E0FF1560F0F801F486CE
:1039800009C0F801EC0DF11D83818E298383DD24AC
:10399000D39409C09F2CF801E20FF31F93818E2D61
:1039A0008095892383836D2DC8010E94960DF39421
:1039B000EE0C19F4C394EE24E394F7E0FC1508F040
:1039C000BCCF20E42F15B8F4F8019386911001C004
:1039D000B586F8018381882371F0D8011396FE0122
:1039E0003196055F1F4FFE2EEF2E8D9181930A17A2
:1039F0001B07D9F75EC4F801138615861486E0917B
:103A0000A103F091A20382E08083E0919D03F091F5
:103A10009E031082E0919F03F091A0038FEC8083BE
:103A20001092A903E091A503F091A60386E080839C
:103A3000E091A303F091A403808180618083E091F1
:103A4000A303F091A403808188608083E091A303A5
:103A5000F091A403808180688083E091A303F091BA
:103A6000A40380818F7D808385E090E0A0E0B0E0BA
:103A70008093950390939603A0939703B093980334
:103A80001092800310927F0310927E0310927D03A8
:103A900010927C0310927B038DE991E09093820356
:103AA0008093810390917103963108F058C02DEBFB
:103AB00030E030937C0320937B032BE931E030939B
:103AC0007E0320937D032CE231E03093800320932A
:103AD0007F0340916800983058F031E09E3008F440
:103AE00030E021E0822F01C0880F3A95EAF701C04B
:103AF00084E0842B80936800983038F09E3040F04A
:103B0000963148F42CE630E008C02DE630E005C0E0
:103B10002BE630E002C020E030E0309379032093C0
:103B20007803983030F481E001C0880F9A95EAF765
:103B30000EC0292F30E09E3018F42850310902C001
:103B40002E50310981E001C0880F2A95EAF7809351
:103B50007A0380918103909182030197F1F780911C
:103B60007F0390918003892B49F1E0918E02F091BF
:103B70008F0223E0E536F20709F1309739F0A38987
:103B8000B4899C918589809589238C938091830346
:103B90008E7F8093830310928C0210928D0285E6B3
:103BA00093E090938F0280938E02E0917803F091DE
:103BB0007903908180917A03892B808385E090E05E
:103BC000A0E0B0E08093690390936A03A0936B0335
:103BD000B0936C0361E08091C3040E94F012FBEB90
:103BE000AF2EF4E0BF2EA7E8EA2EA4E0FA2E10E0F4
:103BF00061E0F50181915F010E94CE1064EF71E0F8
:103C000080E090E00E949514C7010E942510670192
:103C1000F0E1CF0ED11CC6010E942510812F0E9419
:103C2000091564EF71E080E090E00E949514C701EF
:103C30000E942510C6010E94251061E0812F0E947C
:103C4000EE0E1F5F24E0E20EF11C143089F660E0F6
:103C500084E00E94EE0E68EE73E080E090E00E9447
:103C6000951460E08091C3040E94F01278EC472E16
:103C7000512C612C712CEFE98E2EEFE09E2E0E94CC
:103C8000CF1400910D0510910E0520910F05309174
:103C90001005DC01CB01801B910BA20BB30B059728
:103CA000A105B10508F428C10E94CF1460930D0549
:103CB00070930E0580930F059093100520912905B0
:103CC00030E0F901EB59FB4F8491F901EA5BFB4FBE
:103CD0001491F901EE5CFB4F0491002379F08111FE
:103CE0000E94C712E02FF0E0EE0FFF1FE25EFB4FD5
:103CF000A591B491EC911E2381E009F480E08170DC
:103D000090912805891711F0982F01C090E08093B9
:103D10002805992309F4F0C0809115059091280198
:103D2000891721F09F3F09F0D2C004C0EAE5F4E012
:103D300014917BC080932801EAE5F4E0E491EF3F21
:103D400009F4C5C0E13009F44AC060F1E23009F07D
:103D50006BC01092B0001092B1009091B0009260D0
:103D60009093B0009091B10091609093B100282F92
:103D700030E0F901EE5CFB4FE491F0E0EE0FFF1F45
:103D8000E85DFB4F459154915093D9064093D80676
:103D9000F901EA5BFB4FE491E093DA0661E00E94EF
:103DA0001F1361C014BC15BC94B5926094BD95B549
:103DB000916095BD282F30E0F901EE5CFB4FE49156
:103DC000F0E0EE0FFF1FE85DFB4F45915491F901C4
:103DD000EA5BFB4FE491E093430210E028C01092AD
:103DE00080001092810090918100986090938100F2
:103DF00090918100916090938100282F30E0F9012B
:103E0000EE5CFB4FE491F0E0EE0FFF1FE85DFB4F2F
:103E100045915491F901EA5BFB4FE491E093420232
:103E200061E00E941F1329C01E2F17FD50C061E0E2
:103E30000E941F13112319F01230E9F414C085B544
:103E4000887F836085BD8DE387BD40924802509294
:103E5000490260924A0270924B0280916E00826029
:103E600080936E0034C08091B100887F836080931E
:103E7000B1008CE71DC01130C1F480918100887FB2
:103E800081608093810090928900809288004092A6
:103E9000440250924502609246027092470280911D
:103EA0006F00826080936F0012C0123081F48FE93E
:103EB0008093B3004092DB065092DC066092DD06F0
:103EC0007092DE0680917000826080937000809115
:103ED0001205882361F0109213058091110583303B
:103EE00019F41092110503C08F5F8093110581E0D2
:103EF000809312050E94AC020E94CF140091050528
:103F0000109106052091070530910805DC01CB01D1
:103F1000801B910BA20BB30B803A9F40A105B1050A
:103F200028F10E94CF1460930505709306058093D5
:103F300007059093080580911205882369F0809108
:103F40001305803120F48F5F809313050FC010920A
:103F50001305109212050AC080911105833019F4DF
:103F60001092110503C08F5F8093110585E693E0E1
:103F70000E94530B181619060CF02CC1CE010F9697
:103F80000E94020CCE0109960E94020CCE010196FD
:103F90000E94020C0E94CE0B97FD1BC08D8B1E8AC7
:103FA0000D811E810F5F1F4FB801CE0101960E9447
:103FB0005B13882379F329813A818D819E81BE012B
:103FC0006B5E7F4F820F931F0E946B2B1E830D83AE
:103FD000E1CF89859A850097A9F069817A81611579
:103FE000710571F04B855C852D813E814217530729
:103FF00038F00E946B2B8D819E819E878D8710C02B
:104000000E940E2A89819A819A8789878B819C8157
:104010009C878B878D819E819E878D871A821982CE
:1040200089819A810E940E2A6AE070E080E090E027
:104030000E9495144D855E8569857A8581E993E0B6
:104040000E940D1A67ED71E081E993E00E94461A23
:10405000C984DA84C114D104E9F10D851E850115E6
:104060001105C1F176015701FFEFAF1ABF0AF70141
:104070008081082E000C990B0E94F025892B11F0ED
:104080007501F1CF015011090C0D1D1DF801808142
:10409000082E000C990B0E94F025892B31F00E158B
:1040A0001F0518F001501109F1CFA8014F5F5F4FB4
:1040B0004E195F095E874D87CE14DF0420F4B701E7
:1040C000C6010E94622BE985FA858D859E85E80FE1
:1040D000F91F10828D859E85029708F465C0F12C2A
:1040E0000F2D10E08D859E858017910708F469C01B
:1040F00084ED90E00E94150A8F2D90E0A0E0B0E0E2
:104100004AE0BC01CD010E94C7188CEC90E00E94EF
:10411000150A8D859E850817190748F489859A85A3
:10412000009729F0FC01E00FF11F608101C060E001
:1041300081E993E00E94261467ED71E081E993E044
:104140000E94461A8D859E850817190760F4898597
:104150009A85009761F0FC01E00FF11F80818A339E
:1041600009F410C105C00817190709F40BC180E054
:1041700089831A820B891C890F5F1F4FB801CE01FA
:104180000F960E945B13882369F02F8538898B89ED
:104190009C89BE016F5F7F4F820F931F0E946B2B24
:1041A0001C8B0B8BF3949CCF89859A85009719F013
:1041B0000E94B12303C060E070E0CB01CB010E94FC
:1041C0007B0B89859A850E940E2A8F8598890E948B
:1041D0000E2ACCCE0E94CF140091090510910A0539
:1041E00020910B0530910C05DC01CB01801B910B5C
:1041F000A20BB30B803A9F40A105B10570F00E945D
:10420000CF146093090570930A0580930B05909372
:104210000C0581E08093140502C0109214050E94E1
:10422000CF140091010510910205209103053091F2
:104230000405DC01CB01801B910BA20BB30B883E64
:104240009340A105B10560F00E94CF146093010571
:104250007093020580930305909304050E94AC02BD
:1042600080911405882311F180912A058823F1F0AB
:104270006AE275E085E693E00E94461A67ED71E018
:1042800085E693E00E94461A6AE275E081E993E0D0
:104290000E94461A67ED71E081E993E00E94461A98
:1042A00069ED71E08AE295E00E946B2B0E94841117
:1042B000E6CC67E08F2D9E2D0E945A0D98858913BC
:1042C00023CB80914F03811125C08091570390919A
:1042D00058030E94180E6F2D7E2D809157039091E8
:1042E00058030E94F90D40E064EB809157039091D0
:1042F00058030E94C50D80915703909158030E9466
:10430000720D182F80915703909158030E94180E38
:10431000112379F1109152038981803109F464C02D
:104320008F2D9E2D0E94C00E811718F4809152038C
:1043300009C08981803111F48CE004C08F2D9E2D3D
:104340000E94C00E80935203809155038F5F80932B
:1043500055038981883281F030F4803169F08232EE
:1043600009F0D2CA09C08B3339F0823409F0CCCAC3
:1043700003C0A0924F03CECF809156038F5F8093EE
:104380005603C2CA8F859889009751F10E94B123C4
:104390006115710511F0CB0102C089E090E00E9427
:1043A0007B0B60E070E0CE010F960E945B132F85BF
:1043B000388981110DC02115310519F0C9010E94FC
:1043C0000E2A188A1F861C8A1B8A1A8A198AEACE24
:1043D0001C8A1B8A69ED71E0C9010E946B2BE2CE39
:1043E00060E070E0CB01D4CF1D3008F09FCFA4CFA8
:1043F000109246031092450388EE93E0A0E0B0E0EF
:104400008093470390934803A0934903B0934A03D2
:1044100081E891E0909344038093430360E084E05B
:104420000E941F13EAE4F4E0E491E093C206E6E39D
:10443000F4E0E491F0E0EE0FFF1FE25EFB4F8591A8
:1044400094919093C4068093C3061092CD06109267
:10445000CF061092CE06EDECF6E085EC96E01292D7
:104460008E179F07E1F782EC96E0909358038093B4
:104470005703109255031092560310924F0389E090
:104480008093520361E0609353036093540310924E
:104490006403109263031092500310926803109209
:1044A000670388EE93E0A0E0B0E080936903909307
:1044B0006A03A0936B03B0936C0383E991E090933C
:1044C00066038093650310927C0310927B03109225
:1044D0007E0310927D031092800310927F0310924E
:1044E000820310928103809183038E7F8D7F80935E
:1044F000830386958170682782E00E94F01261E054
:1045000082E00E941F13E8E4F4E0E491E093750375
:10451000E4E3F4E0E491F0E0EE0FFF1FE85DFB4F11
:1045200085919491909377038093760360E083E084
:104530000E941F138091830381FD04C061E083E02A
:104540000E94F01283E080937103E9E4F4E0E491C7
:10455000E0937203E5E3F4E0E491F0E0EE0FFF1F77
:10456000E25EFB4F85919491909374038093730363
:10457000109287031092860385EA91E09093850359
:104580008093840310928D0387E28093880380E1F7
:1045900080938E0392E090938F0310929003109279
:1045A00094031092930348EE53E060E070E0409370
:1045B000950350939603609397037093980321EBB0
:1045C00031E0309392032093910325EC30E0309357
:1045D0009E0320939D0324EC30E03093A0032093AE
:1045E0009F0320EC30E03093A2032093A10321EC41
:1045F00030E03093A4032093A30322EC30E0309307
:10460000A6032093A50326EC30E03093A803209363
:10461000A7031092AA031092AB031092AC0310925E
:10462000AD031092360410923704109238041092A1
:10463000390410923A0410923B0410923C041092F8
:104640003D0410923E0410923F04109240041092D8
:10465000410410925304109252041092800410925C
:104660008104109282049CE0909383049BE09093D9
:1046700084049AE09093850499E090938604EFE394
:10468000F1E0A7E8B4E0982F01900D929A95E1F738
:10469000EFE4F1E0A7E9B4E0982F01900D929A952C
:1046A000E1F7EFE5F1E0A7EAB4E0982F01900D9271
:1046B0009A95E1F79EE09093B70497E09093B80441
:1046C00098E09093B90496E09093BA0440916F01FA
:1046D0005091700160917101709172014093BB041F
:1046E0005093BC046093BD047093BE044091730169
:1046F0005091740160917501709176014093BF04EF
:104700005093C0046093C1047093C20495E09093E9
:10471000C3041092C40410921405809315051092DE
:1047200028058FE080932905089583E991E090930F
:1047300066038093650380918E0290918F02855667
:10474000934071F4E0917803F09179039081809126
:104750007A0380958923808310928F0210928E02B3
:1047600008951F93FC0199278827BC01E8941191B3
:104770001032E9F3193010F01E30C8F31B3251F03B
:104780001D3249F4689406C00E94D823610F711D40
:10479000811D911D119110531A30B0F33EF4909584
:1047A0008095709561957F4F8F4F9F4F1F91089512
:1047B000592F482F372F262F660F771F881F991FD5
:1047C000660F771F881F991F620F731F841F951F25
:1047D000660F771F881F991F0895AEE0B0E0E3EFE2
:1047E000F3E20C94DE270D891E898EE08C831A83F8
:1047F00009838FEF9FE79E838D83AE01475E5F4FF6
:104800006F89788DCE0101960E940F24EF81F88583
:10481000E00FF11F10822E96E4E00C94FA27ABE033
:10482000B0E0E5E1F4E20C94D0276C017B018A0151
:10483000FC0117821682838181FFCCC1CE010196D3
:104840003C01F6019381F70193FD859193FF8191DE
:104850007F01882309F4BAC1853239F493FD85912B
:1048600093FF81917F01853229F4B60190E00E9487
:104870000F26E7CF912C212C312CFFE1F315D8F036
:104880008B3279F038F4803279F08332A1F4232D21
:1048900020611DC08D3261F0803369F4232D2160C9
:1048A00016C0832D8260382EE32DE4603E2E2AC090
:1048B000F32DF8601DC037FC2DC020ED280F2A30E5
:1048C00040F08E32B9F436FC81C1232D2064322EA3
:1048D00019C036FE06C08AE0989E200D1124922E43
:1048E00011C0EAE02E9E200D1124222EF32DF0623D
:1048F0003F2E08C08C3621F4832D8068382E02C0EC
:10490000883641F4F70193FD859193FF81917F01F2
:104910008111B3CF982F9F7D9554933028F40C5F6D
:104920001F4F9FE399830DC0833631F0833771F0B9
:10493000833509F059C021C0F801808189830E5F59
:104940001F4F88248394912C530113C02801F2E057
:104950004F0E511CF801A080B18036FE03C0692DB6
:1049600070E002C06FEF7FEFC5010E9404264C018A
:104970008201F32DFF773F2E16C0280122E0420E60
:10498000511CF801A080B18036FE03C0692D70E093
:1049900002C06FEF7FEFC5010E94F9254C01F32D96
:1049A000F0683F2E820133FC1BC0822D90E08816F8
:1049B0009906B0F4B60180E290E00E940F262A9496
:1049C000F4CFF50137FC859137FE81915F01B60187
:1049D00090E00E940F2621102A9421E0821A91086B
:1049E0008114910471F7E8C0843611F0893641F5DD
:1049F000F80137FE07C060817181828193810C5F6D
:104A00001F4F08C060817181072E000C880B990B25
:104A10000E5F1F4FF32DFF763F2E97FF09C0909535
:104A20008095709561957F4F8F4F9F4FF0683F2E17
:104A30002AE030E0A3010E944B26882E861845C04C
:104A4000853731F4232D2F7EB22E2AE030E025C0A9
:104A5000932D997FB92E8F36C1F018F4883579F0EF
:104A6000B5C0803719F0883721F0B0C0E92FE06178
:104A7000BE2EB4FE0DC0FB2DF460BF2E09C034FE67
:104A80000AC0292F2660B22E06C028E030E005C0FB
:104A900020E130E002C020E132E0F801B7FE07C0BB
:104AA00060817181828193810C5F1F4F06C060819C
:104AB000718180E090E00E5F1F4FA3010E944B26A2
:104AC000882E8618FB2DFF773F2E36FE0DC0232D36
:104AD0002E7FA22E891458F434FE0BC032FC09C07C
:104AE000832D8E7EA82E05C0B82CA32C03C0B82C15
:104AF00001C0B92CA4FE0FC0FE01E80DF11D80819C
:104B0000803321F49A2D997EA92E09C0A2FE06C0F9
:104B1000B394B39404C08A2D867809F0B394A3FCAF
:104B200011C0A0FE06C0B21488F4280C922C9B1869
:104B30000EC0B21460F4B60180E290E00E940F262D
:104B4000B394F7CFB21418F42B1802C0982C212C70
:104B5000A4FE10C0B60180E390E00E940F26A2FEE2
:104B600017C0A1FC03C088E790E002C088E590E090
:104B7000B6010CC08A2D867859F0A1FE02C08BE2E6
:104B800001C080E2A7FC8DE2B60190E00E940F26F2
:104B9000891438F4B60180E390E00E940F269A94BD
:104BA000F7CF8A94F301E80DF11D8081B60190E002
:104BB0000E940F268110F5CF222009F442CEB601C3
:104BC00080E290E00E940F262A94F6CFF6018681BB
:104BD000978102C08FEF9FEF2B96E2E10C94EC27B8
:104BE00091110C947C27803219F089508550C8F7B8
:104BF0000895FC010590615070400110D8F7809530
:104C000090958E0F9F1F0895FC0161507040019098
:104C10000110D8F7809590958E0F9F1F08950F93E0
:104C20001F93CF93DF93FB01238121FD03C08FEFFF
:104C30009FEF2CC022FF16C0468157812481358109
:104C40004217530744F4A081B1819D012F5F3F4F6C
:104C5000318320838C93268137812F5F3F4F3783A9
:104C6000268314C08B01EC01FB010084F185E02D4B
:104C70000995892BE1F6D80116968D919C9117978D
:104C8000019617969C938E931697CE01DF91CF9144
:104C90001F910F910895FA01AA27283051F1203170
:104CA00081F1E8946F936E7F6E5F7F4F8F4F9F4FC0
:104CB000AF4FB1E03ED0B4E03CD0670F781F891F02
:104CC0009A1FA11D680F791F8A1F911DA11D6A0FD0
:104CD000711D811D911DA11D20D009F468943F9183
:104CE0002AE0269F11243019305D3193DEF6CF0182
:104CF0000895462F4770405D4193B3E00FD0C9F748
:104D0000F6CF462F4F70405D4A3318F0495D31FDB4
:104D10004052419302D0A9F7EACFB4E0A695979507
:104D2000879577956795BA95C9F7009761057105DD
:104D300008959B01AC010A2E069457954795379527
:104D40002795BA95C9F7620F731F841F951FA01D81
:104D500008950E94EB2608F481E00895E89409C0C4
:104D600097FB3EF490958095709561957F4F8F4F9E
:104D70009F4F9923A9F0F92F96E9BB279395F695B4
:104D8000879577956795B795F111F8CFFAF4BB0F32
:104D900011F460FF1BC06F5F7F4F8F4F9F4F16C096
:104DA000882311F096E911C0772321F09EE8872F20
:104DB000762F05C0662371F096E8862F70E060E0DC
:104DC0002AF09A95660F771F881FDAF7880F969555
:104DD000879597F90895990F0008550FAA0BE0E8F9
:104DE000FEEF16161706E807F907C0F012161306AD
:104DF000E407F50798F0621B730B840B950B39F4ED
:104E00000A2661F0232B242B252B21F408950A2652
:104E100009F4A140A6958FEF811D811D08950E9480
:104E200022270C9496270E94882738F00E948F270B
:104E300020F0952311F00C947F270C9485271124E2
:104E40000C94CA270E94A72770F3959FC1F3950F72
:104E500050E0551F629FF001729FBB27F00DB11DFE
:104E6000639FAA27F00DB11DAA1F649F6627B00D8E
:104E7000A11D661F829F2227B00DA11D621F739F77
:104E8000B00DA11D621F839FA00D611D221F749F85
:104E90003327A00D611D231F849F600D211D822FCC
:104EA000762F6A2F11249F5750409AF0F1F08823F3
:104EB0004AF0EE0FFF1FBB1F661F771F881F915020
:104EC0005040A9F79E3F510580F00C947F270C9429
:104ED000CA275F3FE4F3983ED4F3869577956795AC
:104EE000B795F795E7959F5FC1F7FE2B880F911D4A
:104EF0009695879597F9089599278827089597F9A2
:104F00009F6780E870E060E008959FEF80EC08956F
:104F100000240A9416161706180609060895002498
:104F20000A9412161306140605060895092E039412
:104F3000000C11F4882352F0BB0F40F4BF2B11F486
:104F400060FF04C06F5F7F4F8F4F9F4F089557FDE5
:104F50009058440F551F59F05F3F71F04795880FE7
:104F600097FB991F61F09F3F79F08795089512167E
:104F700013061406551FF2CF4695F1DF08C016162A
:104F800017061806991FF1CF8695710561050894DB
:104F90000895E894BB2766277727CB0197F90895F2
:104FA0002F923F924F925F926F927F928F929F9239
:104FB000AF92BF92CF92DF92EF92FF920F931F9327
:104FC000CF93DF93CDB7DEB7CA1BDB0B0FB6F894D8
:104FD000DEBF0FBECDBF09942A88398848885F8418
:104FE0006E847D848C849B84AA84B984C884DF8089
:104FF000EE80FD800C811B81AA81B981CE0FD11D6D
:105000000FB6F894DEBF0FBECDBFED01089597FB3C
:10501000072E16F4009407D077FD09D00E9443288C
:1050200007FC05D03EF4909581959F4F08957095AB
:1050300061957F4F0895A1E21A2EAA1BBB1BFD01AB
:105040000DC0AA1FBB1FEE1FFF1FA217B307E40767
:10505000F50720F0A21BB30BE40BF50B661F771FBF
:10506000881F991F1A9469F760957095809590959F
:105070009B01AC01BD01CF010895EE0FFF1F05900C
:10508000F491E02D0994AA1BBB1B51E107C0AA1F94
:10509000BB1FA617B70710F0A61BB70B881F991FD9
:1050A0005A95A9F780959095BC01CD010895505867
:1050B000BB27AA270E946F280C9496270E94882756
:1050C00038F00E948F2720F039F49F3F19F426F41E
:1050D0000C9485270EF4E095E7FB0C947F27E92FCD
:1050E0000E94A72758F3BA1762077307840795072A
:1050F00020F079F4A6F50C94C9270EF4E0950B2E58
:10510000BA2FA02D0B01B90190010C01CA01A00119
:105110001124FF27591B99F0593F50F4503E68F174
:105120001A16F040A22F232F342F4427585FF3CFB5
:10513000469537952795A795F0405395C9F77EF486
:105140001F16BA0B620B730B840BBAF09150A1F0CF
:10515000FF0FBB1F661F771F881FC2F70EC0BA0F55
:10516000621F731F841F48F4879577956795B795DD
:10517000F7959E3F08F0B0CF9395880F08F09927D8
:10518000EE0F9795879508950E94D8280C9496273E
:105190000E948F2758F00E94882740F029F45F3F33
:1051A00029F00C947F2751110C94CA270C94852761
:1051B0000E94A72768F39923B1F3552391F3951B18
:1051C000550BBB27AA2762177307840738F09F5F28
:1051D0005F4F220F331F441FAA1FA9F335D00E2E95
:1051E0003AF0E0E832D091505040E695001CCAF702
:1051F0002BD0FE2F29D0660F771F881FBB1F2617C5
:1052000037074807AB07B0E809F0BB0B802DBF019B
:10521000FF2793585F4F3AF09E3F510578F00C946A
:105220007F270C94CA275F3FE4F3983ED4F386951A
:1052300077956795B795F7959F5FC9F7880F911D8B
:105240009695879597F90895E1E0660F771F881F77
:10525000BB1F621773078407BA0720F0621B730B2A
:10526000840BBA0BEE1F88F7E09508950E943D2944
:105270006894B1110C94CA2708950E94AF2788F052
:105280009F5798F0B92F9927B751B0F0E1F0660F0A
:10529000771F881F991F1AF0BA95C9F714C0B1304B
:1052A00091F00E94C927B1E008950C94C927672F97
:1052B000782F8827B85F39F0B93FCCF3869577957A
:1052C0006795B395D9F73EF4909580957095619563
:1052D0007F4F8F4F9F4F08950E94EB2608F48FEF6A
:1052E00008950E94EB26880B990B08950F931F9346
:1052F000CF93DF938230910510F482E090E0E0914B
:10530000E306F091E40620E030E0A0E0B0E0309762
:1053100019F1408151810281138148175907C8F062
:105320008417950769F4109731F012960C93129731
:1053300013961C9327C00093E3061093E40622C043
:105340002115310519F04217530718F49A01BD01D0
:10535000EF01DF01F801DBCF21153105F9F0281B42
:10536000390B2430310580F48A819B8161157105E8
:1053700021F0FB019383828304C09093E406809321
:10538000E306FE01329644C0FE01E20FF31F819353
:10539000919322503109398328833AC02091E10644
:1053A0003091E206232B41F420912B0130912C0106
:1053B0003093E2062093E1062091290130912A01E1
:1053C0002115310541F42DB73EB740912D01509183
:1053D0002E01241B350BE091E106F091E206E21765
:1053E000F307A0F42E1B3F0B2817390778F0AC0108
:1053F0004E5F5F4F2417350748F04E0F5F1F5093E5
:10540000E2064093E1068193919302C0E0E0F0E070
:10541000CF01DF91CF911F910F910895CF93DF932B
:10542000009709F481C0FC01329713821282A09187
:10543000E306B091E406109781F420813181820F58
:10544000931F2091E1063091E2062817390751F5A4
:10545000F093E206E093E10667C0ED0120E030E062
:10546000CE17DF0740F44A815B819E01411551054B
:10547000F1F0EA01F5CFD383C28340815181840FDB
:10548000951FC817D90759F488819981840F951FF2
:105490000296918380838A819B81938382832115E5
:1054A000310529F4F093E406E093E3063DC0E901F9
:1054B000FB83EA8349915991C40FD51FEC17FD076F
:1054C00061F480819181840F951F0296E90199838F
:1054D0008883828193819B838A83E0E0F0E0129647
:1054E0008D919C911397009719F0FD01DC01F7CF86
:1054F0008D919C9111979D012E5F3F4F820F931FBD
:105500002091E1063091E2062817390769F43097B7
:1055100029F41092E4061092E30602C0138212826C
:10552000B093E206A093E106DF91CF910895A0E049
:10553000B0E0EDE9FAE20C94D427EC01009721F4F5
:10554000CB010E947629B4C0FC01E60FF71F9C0135
:1055500022503109E217F30708F4A8C0D9010D91D0
:105560001C91119706171707B0F00530110508F4C4
:105570009BC0C80104978617970708F495C002508E
:105580001109061B170B019311936D937C93CF01A7
:105590000E940E2A89C05B01A01AB10A4C01800E3C
:1055A000911EA091E306B091E406612C712CE12CD0
:1055B000F12C109709F446C08D919C911197A81574
:1055C000B905B1F56C0142E0C40ED11CCA14DB046C
:1055D00078F14C018A189B08640142E0C40ED11C8A
:1055E0001296BC9012971396AC91B5E0CB16D104ED
:1055F00040F0B282A38391828082D9016D937C9323
:1056000009C00E5F1F4F800F911FF90191838083A6
:10561000EB2DFA2FE114F10431F0D7011396FC932E
:10562000EE93129741C0F093E406E093E3063CC08A
:105630006816790608F43C017D0112960D90BC9124
:10564000A02DB7CF8091E1069091E20688169906C9
:10565000E1F466167706C8F48091290190912A0139
:10566000009741F48DB79EB740912D0150912E01C6
:10567000841B950BE817F907C8F4F093E206E09352
:10568000E106F901718360830FC0CB010E94762986
:105690007C01009759F0A801BE010E94622BCE0147
:1056A0000E940E2AC70104C0CE0102C080E090E033
:1056B000CDB7DEB7EEE00C94F02781E090E0F894EF
:1056C0000C94722BFB01DC0102C001900D92415041
:1056D0005040D8F70895FB01DC0101900D920020A5
:1056E000E1F7089512E0C1E8D2E004C0FE010E9493
:0E56F0003D282196C238D107C9F7F894FFCFA4
:1056FE002855E9799705038628900979970203467C
:10570E0028CF2B7997050359284B6C7997040313EF
:10571E0028C89C79970503C2FF0000E506200033D8
:10572E0033534033335340333353403333534001B9
:10573E000100010100000101010100010001000151
:10574E000101010001010101000101000001010040
:10575E000100010000000100010100000001000035
:10576E00020406010305075E00BC0077010000007D
:10577E0000BC0A8F0A371A590D870A730A640A0089
:10578E00000000030B0D1A371A590D530B2511EBA0
:10579E000A00000000C1120D1A371A46110000004F
:1057AE000026140D1A47117314781156116A110040
:1057BE00004000140054005C8F024052B8FE3FB807
:1057CE001E0540AE4701400D0A00446973636861CF
:1057DE00726765204D696C6C69616D707320546FD2
:1057EE0074616C3A20004469736368617267652066
:1057FE00416D70733A200044697363686172676526
:10580E00204D696C6C69732054696D653A200044B3
:10581E006973636861726765204D696C6C69616D4F
:10582E0070733A20006E616E00696E66006F766668
:02583E00000068
:00000001FF
